:020000040800F2
:1000000030040020D5000008FB000008FD000008B7
:1000100000000000000000000000000000000000E0
:10002000000000000000000000000000FF000008C9
:100030000000000000000000010100088D0C000815
:100040000501000805010008050100080501000878
:100050000501000805010008050100080501000868
:100060000000000005010008050100080501000866
:100070000501000805010008050100080501000848
:100080000501000800000000000000000501000854
:100090000000000005010008050100080501000836
:1000A000000000002906000891060008050100086C
:1000B0000501000800000000050100080501000816
:1000C0000348854600F08CF80048004731140008CA
:1000D000300400200C4880F308880C480168090EA1
:1000E0000B4A914205D10B480B4901600B480C4962
:1000F00001600C4880470C480047FEE7FEE7FEE73A
:10010000FEE7FEE7FEE700003004002004000000E8
:100110001F00000018100240010000000000014014
:1001200000000000F90C0008C100000830B50B46C3
:10013000014600202022012409E00D46D5409D42C1
:1001400005D31D469540491B254695404019154647
:10015000521E002DF1DC30BD70B50024254600286C
:1001600001DA01244042002901DA01254942FFF762
:10017000DDFFAC4200D04042002C00D0494270BDAF
:10018000F0B51FB40646002082B005464024019118
:1001900000901BE0019922460F46304600F042F8DD
:1001A000049A059B801A994110D31046194622469D
:1001B00000F028F8361A8F410197224601200021CD
:1001C000009F00F01FF838184D4100902046641E33
:1001D0000028DFDC019B00982946324607B0F0BDBD
:1001E000064C0125064E05E0E36807CC2B430C3C8A
:1001F00098471034B442F7D3FFF766FF3C15000868
:100200005C15000810B5202A04DB0146203A914015
:10021000002010BD914020239C1A0346E34019435F
:10022000904010BD10B5202A04DB0846203AD0408B
:10023000002110BD0B46D340D0402024A21A91408B
:100240000843194610BDFFB583B00C460294002048
:100250000190002726E000261CE0721C0399514300
:100260000846791CFFF762FF0546A54201D9281B05
:1002700000E0601B05460298A84204D90295059843
:100280000670069807700298002802D1012001909C
:1002900002E0761C402EE0D300BF0198002800D079
:1002A00002E07F1C042FD6D300BF029807B0F0BD38
:1002B00008B501210320400400F016F9684600F05B
:1002C00095F80121C9036846018001218170102140
:1002D000C17069460920C00600F01CF80121C9035D
:1002E0000920C00600F080F8684600F07FF8382149
:1002F00068460180012181701021C170694604485F
:1003000000F008F83821024800F06EF808BD00003F
:1003100000040048F8B50246CD782F073F0FCD788E
:1003200010263540002D01D08D782F431446002033
:1003300011E085062B0E0D88012686403540002DE4
:1003400007D025680F269E40B5433E469E40354364
:100350002560451CE8B20828EBDB141D0D882D1222
:100360000095002011E085062B0E01258540009E9A
:100370003540002D07D025680F269E40B5433E46E8
:100380009E4035432560451CE8B20828EBDBCD785C
:10039000282D04D155690E883543556106E0CD7886
:1003A000482D03D115690E8835431561F8BD70B528
:1003B0004D07EB0E082902DA0546203501E0054617
:1003C00024352C460F269E402568B54316469E4090
:1003D0003543256070BD0246D0680840002801D032
:1003E000012070470020FCE7416170470021C943AC
:1003F0000180022181700421C1707047002A01D060
:10040000016100E0416170478178002925D01749DA
:1004100003221202891802789210920089580278F9
:100420009207D30EFF229A40914342789207120E10
:1004300003789B07DB0E9A4011430C4A03231B02EF
:10044000D21803789B109B00D1500178CA06D20EB7
:1004500001219140054A116007E00178CA06D20ED9
:1004600001219140014A80321160704700E100E0B3
:1004700010B5002819DA1A4A03071B0F083B9B081E
:100480009B00D2588307DC0EFF23A3409A438B07BF
:100490001B0E8407E40EA3401A43114B0407240FDC
:1004A000083CA408A4001A5118E00E4A03231B02BA
:1004B000D21883089B00D2588307DC0EFF23A34089
:1004C0009A438B071B0E8407E40EA3401A43054B87
:1004D000032424021B198408A4001A5110BD000033
:1004E0001CED00E000E100E0002905D0054A52695A
:1004F0000243044B5A6104E0024A52698243014BB1
:100500005A61704700100240002905D0054AD2699F
:100510000243044BDA6104E0024AD2698243014B90
:10052000DA61704700100240002905D0054A92693F
:100530000243044B9A6104E0024A92698243014BF0
:100540009A6170470010024010B500F031F804497C
:100550004968F02211400909024A515CC84010BDA7
:10056000001002401C00002010B5FFF7EDFF054908
:100570004968072212021140090A034A515CC84027
:1005800010BD0000001002401C00002010B5FFF755
:10059000DBFF054949680722D2021140C90A034A14
:1005A000515CC84010BD0000001002401C0000203B
:1005B00070B5194840680C210840042802D008286A
:1005C00027D101E0154870BD134840680121090496
:1005D0000840002809D01048406849000840002819
:1005E00001D00F4802E00D4800E00E4806460A48D8
:1005F0000068800E441C084800680721090508406F
:10060000000D451C3146614308462946FFF78EFD23
:10061000D9E70248D7E700000010024000127A0034
:1006200000093D00001BB70010B50221134800F07F
:1006300093F8002820D0114800F0EFF8C4B221460A
:100640000E4800F003F921460DA000F085FC0A21B8
:100650000D480078401CFFF77FFDC8B20A490870BA
:1006600008460078002802D108A000F075FC02219D
:10067000024800F061F800BF10BD000000300140EA
:100680003078253032782000140000200D0A000058
:1006900010B50221134800F05FF8002820D011485F
:1006A00000F0BBF8C4B221460E4800F0CFF8214656
:1006B0000DA000F051FC0A210D480078401CFFF706
:1006C0004BFDC8B20A49087008460078002802D1DC
:1006D00008A000F041FC0221024800F02DF800BF04
:1006E00010BD0000003800403078253032782000FE
:1006F000150000200D0A0000002906D0012909D0AC
:1007000002290CD0032914D10EE0826910231A4368
:1007100082610FE0826908231A4382610AE08269DC
:1007200010239A43826105E0826908239A4382611B
:1007300000E000BF00BF704742690A434261704752
:10074000002904D0826901231A43826103E082698F
:1007500052085200826170470246D0680840002863
:1007600001D0012070470020FCE710B5002A07D017
:10077000836902242343836103690B43036106E019
:1007800003698B43036183690224A343836110BD22
:100790000A79202A11D182690123DB021A4382617E
:1007A00082695B109A430B891A4382618269042330
:1007B0009A430B781A4382610CE0826901239B0201
:1007C0009A430B891A438261826904239A430B7806
:1007D0001A438261C26904239A430B7B1A43C261A4
:1007E000C26902239A434B791A43C261C269520813
:1007F00052008B791A43C261C26908231A43C2614D
:10080000026A120C12044B891A430262C26A52092C
:1008100052010B791A43C2627047014672B64868AA
:10082000CB6ADAB2002A00D12022082A02DD4B6806
:100830001B021843102A02DD4B681B041843182AB8
:1008400002DD4B681B06184362B6704772B6016042
:10085000C36A9AB2002A00D12022082A01DD0B0ABD
:100860000360102A01DD0B0C0360182A01DD0B0E5A
:10087000036062B670470021017041800821017158
:1008800000214171012181710021018102214181F9
:10089000002101737047000010B586B004469248ED
:1008A00084427DD101218014FFF73EFE01A8FFF7AD
:1008B000E2FF002168460171C18008210172002118
:1008C00041720121817200218181A115C181002124
:1008D000017401A92046FFF75BFF01220221204697
:1008E000FFF743FF00212046FFF706FF01212046C6
:1008F000FFF702FF01212046FFF722FF01214804F4
:10090000FFF7F2FD01210846FFF70EFE0022042149
:100910000920C006FFF74BFD002205210920C00673
:10092000FFF745FD002206210920C006FFF73FFD25
:10093000002207210920C006FFF739FD05A8FFF7AF
:1009400055FD102168468182012181754821C175BC
:1009500005A90920C006FFF7DDFC05A8FFF746FD45
:10096000202168468182012181750421C17505A974
:100970000920C006FFF7CEFC05A8FFF737FD402190
:1009800068468182012181751821C17505A9092058
:10099000C006FFF7BFFC05A8FFF728FD802100E097
:1009A00014E068468182012181754821C17505A93D
:1009B0000920C006FFF7AEFC19216846017002212C
:1009C000417001218170FFF71FFD8BE04748844291
:1009D000FBD101210014FFF797FD01A8FFF74BFFA2
:1009E000002168460171C180082101720021417215
:1009F0000121817200218181A115C1810021017431
:100A000001A92046FFF7C4FE012202212046FFF77C
:100A1000ACFE00212046FFF76FFE01212046FFF7C4
:100A20006BFE01212046FFF78BFE01218804FFF7B2
:100A30005BFD01210846FFF777FD00220C212C48C1
:100A4000FFF7B5FC00220D212948FFF7B0FC00227A
:100A50000E212748FFF7ABFC00220F212448FFF7A7
:100A6000A6FC05A8FFF7C2FCA114684681820121FB
:100A700081754821C17505A91D48FFF74BFC05A8E4
:100A8000FFF7B4FC6114684681820121817504215D
:100A9000C17505A91648FFF73DFC05A8FFF7A6FCA0
:100AA000211468468182012181751821C17505A92B
:100AB0000F48FFF72FFC05A8FFF798FCE1136846E5
:100AC0008182012181754821C17505A90848FFF778
:100AD00021FC1A21684601700221417001218170B8
:100AE000FFF792FC06B010BD003001400038004016
:100AF0000004004810B500F001F810BD7FB50020DB
:100B0000039002900025544800680121084352498F
:100B1000086000BF50480068022108400290039816
:100B2000401C03900298002804D105210902039873
:100B30008842EFD14848006802210840002809D0C7
:100B4000012002907D24240100BF2046641E00285D
:100B5000FBD101E000200290029801287BD13F48A0
:100B60003F4908603F480068102108433D4908603C
:100B700008460068C008C000086039490968481E76
:100B80003949FFF7D3FAC5B23648006828433549DA
:100B9000086031484068304948600846406848600D
:100BA0002F4800683149884207D92B484068012105
:100BB000890208432849486006E027484068012127
:100BC00089020843244948602348406803210904F6
:100BD00088432149486008460068254908401E4965
:100BE00008606B4601AA1E4801682248FFF72BFBEC
:100BF000194800681E490840174908606946087985
:100C00008006097809050843134909680843124911
:100C10000860084600680121090608430E4908607B
:100C200000BF0D4800680121490608400028F8D09F
:100C300009484068800880000749486008464068C5
:100C4000022108430449486000BF034840680C2162
:100C500008400828F9D17FBD00100240006CDC027A
:100C6000000000200020024000366E0100512502E5
:100C7000FFFF8F00001BB7000349086000BF024957
:100C800009680029FBD1704718000020044800685B
:100C9000002804D002480068401E014908607047DF
:100CA0001800002070B50546FFF782FC064629466D
:100CB000FFF73CFA0446601E0D49884201D9012025
:100CC0000CE0601E0B4948610321081FFFF7D0FBB1
:100CD000002008498861072008610020002801D011
:100CE00000BFFEE70021481EFFF7C2FB70BD0000F9
:100CF000FFFFFF0000E000E010B51648006801218A
:100D000008431449086008464068134908401149DF
:100D1000486008460068114908400E4908600846C6
:100D200000680121890488430A4908600846406830
:100D3000C3210904884307494860084600680849F8
:100D40000840044908609F2000048860FFF7D2FE35
:100D500010BD0000001002400CC0FFF8FFFFF6FEBF
:100D6000FFFF8F008269520852000A438261704778
:100D7000024690680840002801D0012070470020FA
:100D8000FCE7000070B504460D460026E0693021FE
:100D9000884329790843E061E06904218843A979FF
:100DA0000843E061E06980088000297A0843E06137
:100DB000A0691821884369890843A061A0690421BA
:100DC0008843297B0843A0610B48844203D1FFF785
:100DD000DDFB064602E0FFF7C7FB06463046296802
:100DE000FFF7A4F90009206230462968FFF79EF951
:100DF0000007000F606270BD00380140CAB2026097
:100E000070474B21C90101603021017100218171BE
:100E1000017218214181002101737047F0B585B03E
:100E200004460D4616461F464948844245D10121D5
:100E30008803FFF779FB6846FFF7E3FF00956846F4
:100E40008680C7800A990181002181811821418112
:100E500069462046FFF796FF01214804FFF744FB4F
:100E600001210846FFF760FB01220921C806FFF7B0
:100E70009EFA01220A210920C006FFF798FA04A869
:100E8000FFF7B4FA611568460182012181741821C7
:100E9000C17404A90920C006FFF73CFA2115684671
:100EA00001820421C17404A90920C006FFF732FAA7
:100EB00001212046FFF756FF48E02648844245D1ED
:100EC00001214804FFF720FB6846FFF79AFF0095D1
:100ED00068468680C7800A99018100218181182196
:100EE000418169462046FFF74DFF01214804FFF785
:100EF000FBFA01210846FFF717FB01220221092016
:100F0000C006FFF754FA012203210920C006FFF7AB
:100F10004EFA04A8FFF76AFA04216846018201210B
:100F200081741821C17404A90920C006FFF7F2F9E1
:100F30000821684601820421C17404A90920C00661
:100F4000FFF7E8F901212046FFF70CFF05B0F0BDDF
:100F500000380140004400400FB410B503A9044B11
:100F6000044A029800F018F810BC08BC04B01847F6
:100F70000D1400082C00002002E008C8121F08C150
:100F8000002AFAD170477047002001E001C1121F0A
:100F9000002AFBD170470000FFB591B00F4605460F
:100FA000002606E025280AD0149A139990476D1C54
:100FB000761C28780028F5D1304615B0F0BD002405
:100FC00000940121F34A029400E004436D1C2B7845
:100FD0000846203B98401042F7D128782A280ED0A6
:100FE000022128780246303A092A15D8009A0A23A5
:100FF0005A43303A80180C436D1C0090F1E701CF42
:101000000090002805DA0120400304430098404284
:101010000090022004436D1C28782E2815D104204E
:10102000044368786D1C2A280AD101CF6D1C0290F8
:101030000BE002990A225143303940186D1C02908E
:101040002878014630390929F3D928786C2810D03E
:1010500006DC4C281AD068280ED06A2817D104E084
:10106000742813D07A2812D110E0012040050443DF
:101070000CE00121090501E0032109050C43697811
:10108000814203D10120000524186D1C6D1C2878B5
:1010900003906E281ED00CDC632831D004DC0028BD
:1010A0008AD0582811D1B2E064287BD069280CD1AD
:1010B00078E073282DD004DC6F2870D0702804D11C
:1010C000A7E075286CD078286BD0149A13999047B4
:1010D000761C62E06002400F022807D003280AD085
:1010E000042838680AD006603F1D56E03868F117BA
:1010F00006604160F8E738680680F5E70670F3E7B8
:101100003878694608740020487404A803900120C8
:1011100003E0386803900020C0433F1D61070FD5EE
:10112000002101E00199491C029A0191914213DAD0
:101130008142F7DB019A0399895C0029F2D10BE027
:10114000002101E00199491C01918142FADB019AD9
:101150000399895C0029F5D101990098139A401AE6
:1011600000902146149B00F03BF901998019461824
:1011700007E0039803990078491C0391149A139986
:1011800090470198401E0190401CF2D12146149BCB
:10119000139A009800F014F986196D1C09E741E0D4
:1011A00033E034E00A200021049005916002410FF1
:1011B000022905D001CFC2179446032905D007E0C4
:1011C000FF1DFF08FF0003CF06E000B2C2179446E0
:1011D000042902D140B2C1178C46002261469445D1
:1011E00006DA0A460021404291418C462D2102E058
:1011F000210504D52B216A461176012103E0E10780
:1012000001D02021F7E7019154E00A200BE01020E3
:1012100009E01020049000210420044308200591D7
:10122000029003E008200021059104906002410F24
:10123000022905D001CF00229446032906D006E0FA
:10124000FF1DFF08FF0003CF8C4603E080B2042996
:1012500000D1C0B20021019121072BD5039970293B
:1012600006D0049A1021059B4A401A4305D00EE08F
:1012700040216A461176012108E06146014306D00B
:1012800030216A4611760399517602210191049A20
:101290000821059B4A401A430CD16146014301D104
:1012A000610707D530216A46117601210191029923
:1012B000491E02910399582904D037A103910FA91F
:1012C0000F910DE039A1F9E76146059B049AFEF7FD
:1012D00057FF039B8C469B5C0F9A521E0F92137014
:1012E00061460143F0D10F9807A9081A20300390F6
:1012F000600704D5012000048443029801E0012026
:1013000002900399884201DD401A00E00020411854
:101310000290019809180098401A0090E00306D442
:101320002146149B139A009800F05AF88619002061
:10133000049008E006A9085C149A13999047049851
:10134000401C761C049001998842F3DBE0030CD525
:101350002146149B139A009800F042F8861904E085
:10136000149A302013999047761C0299481E0290D7
:101370000029F5DC08E00F980F990078491C0F91BF
:10138000149A13999047761C0399481E03900029DC
:10139000F1DCFBE6092801003031323334353637D1
:1013A00038396162636465660000000030313233B1
:1013B0003435363738394142434445460000000051
:1013C000F8B5044600251E461746880404D405E0F7
:1013D00039462020B0476D1C641EF9D52846F8BD5B
:1013E000FFB50446002581B01E46C80301D530274D
:1013F00000E02027880404D505E038460399B0476B
:101400006D1C641EF9D5284605B0F0BD70B50446C4
:101410000D46E1B20548FFF7F1FC00BF012103488A
:10142000FFF7A6FC0028F9D0204670BD0038014027
:1014300008B57D20C000FFF735FC002003463022B0
:10144000E121490200902E48FFF7E8FC2D48FFF704
:1014500023FAFEF72DFF2CA22EA131A0FFF77CFD71
:101460004CE00121C9030920C006FEF7B4FF0028A3
:1014700007D000220121C9030920C006FEF7BEFFE4
:1014800005E00122D1030920C006FEF7B7FF0821BD
:101490002948FEF7A0FF002805D000220821264891
:1014A000FEF7ACFF04E0012208212348FEF7A6FF67
:1014B00010212148FEF78FFF002805D000221021BF
:1014C0001D48FEF79BFF04E0012210211A48FEF799
:1014D00095FF20211848FEF77EFF002805D0002246
:1014E00020211548FEF78AFF04E00122202112483E
:1014F000FEF784FFFF20F530FFF7BEFBB1E70000E9
:10150000003801400038004031303A32303A323051
:10151000000000004F63742031362032303230003A
:101520000D0A4D4D33324630333252385436202571
:10153000732025730D0A0000000400485C150008A4
:101540000000002030000000780F00088C15000813
:101550003000002000040000880F0008006CDC024E
:101560000000000000000000010203040607080953
:101570000000000000000000000000000102030461
:0C15800001020304060708090000000037
:04000005080000C12E
:00000001FF
