:020000040800F2
:1000000030040020D5000008FB000008FD000008B7
:1000100000000000000000000000000000000000E0
:10002000000000000000000000000000FF000008C9
:10003000000000000000000001010008290A00087B
:100040000501000805010008050100080501000878
:1000500005010008B1020008510300081904000856
:100060000000000005010008050100080501000866
:100070000501000805010008050100080501000848
:100080000501000800000000000000000501000854
:100090000000000005010008050100080501000836
:1000A0000000000005010008050100080501000826
:1000B0000501000800000000050100080501000816
:1000C0000348854600F048F800480047510E0008F4
:1000D000300400200C4880F308880C480168090EA1
:1000E0000B4A914205D10B480B4901600B480C4962
:1000F00001600C4880470C480047FEE7FEE7FEE73A
:10010000FEE7FEE7FEE700003004002004000000E8
:100110001F00000018100240010000000000014014
:1001200000000000950A0008C100000830B50B4629
:10013000014600202022012409E00D46D5409D42C1
:1001400005D31D469540491B254695404019154647
:10015000521E002DF1DC30BD064C0125064E05E097
:10016000E36807CC2B430C3C98471034B442F7D3D8
:10017000FFF7AAFFB80E0008D80E0008FFB583B03D
:100180000C46029400200190002726E000261CE087
:10019000721C039951430846791CFFF7C7FF0546B7
:1001A000A54201D9281B00E0601B05460298A84221
:1001B00004D90295059806700698077002980028E1
:1001C00002D10120019002E0761C402EE0D300BF56
:1001D0000198002800D002E07F1C042FD6D300BF76
:1001E000029807B0F0BD000008B5012103204004CB
:1001F00000F0B8FA684600F037FA0121C9036846F2
:100200000180012181701021C17069460920C0065A
:1002100000F0BEF90121C9030920C00600F022FA4E
:10022000684600F021FA382168460180012181707A
:100230001021C1706946044800F0AAF9382102482B
:1002400000F010FA08BD0000000400481FB50121AD
:10025000880400F087FA0121084600F073F901A82C
:1002600000F08EF90220019000216846017241726F
:100270000121817201A800F029F903A800F0F4F926
:10028000022168468181012181732821C17303A95C
:10029000064800F07DF90521684601700021417093
:1002A0000121817000F0EEF91FBD0000000400483C
:1002B00010B5022000F0F8F8002818D00121C90379
:1002C0000920C00600F0C5F9002807D0002201214E
:1002D000C9030920C00600F0CFF905E00122D103CF
:1002E0000920C00600F0C8F9022000F0CFF810BDC8
:1002F0001FB50121880400F035FA0221012000F029
:1003000021F901A800F03CF9042001900021684681
:10031000017201214172817201A800F0D7F803A88F
:1003200000F0A2F9042168468181012181734821EE
:10033000C17303A9054800F02BF906216846017036
:1003400001214170817000F09DF91FBD000400483B
:1003500010B5042000F0A8F8002813D008210A489E
:1003600000F077F9002805D000220821064800F0A7
:1003700083F904E001220821034800F07DF90420FC
:1003800000F084F810BD0000000400481FB50121F2
:10039000880400F0E7F90A21012000F0D3F80B21CE
:1003A000012000F0CFF801A800F0EAF80120800257
:1003B000019000216846017201214172817201A8F9
:1003C00000F084F801A800F0DBF80120C0020190E1
:1003D00000216846017201214172817201A800F07A
:1003E00075F803A800F040F903218902684681816D
:1003F000012181734821C17303A9064800F0C8F8A0
:10040000072168460170022141700121817000F0CE
:1004100039F91FBD0004004810B50120800200F02A
:1004200043F8002814D01021174800F012F90028D2
:1004300005D000221021144800F01EF904E001222A
:100440001021114800F018F90120800200F01EF878
:100450000120C00200F028F8002814D020210A480A
:1004600000F0F7F8002805D000222021064800F00F
:1004700003F904E001222021034800F0FDF80120E7
:10048000C00200F003F810BD0004004801494861B3
:10049000704700000004014010B5FFF7D7FEFFF7DA
:1004A00027FFFFF773FF10BD01460748406908406A
:1004B000002806D0044800680840002801D0012028
:1004C00070470020FCE700000004014000B503462F
:1004D000186800F097FC987900282FD01879002828
:1004E00006D117480068196808431549086005E0F7
:1004F0001348406819680843114948605879022830
:100500000CD10F488068196808430D498860084677
:10051000C068196808430A49C8600FE05879002884
:1005200006D107488068196808430549886005E0D6
:100530000348C068196808430149C86000BD00004D
:100540000004014010B50D4A8B109B00D3588A0758
:10055000140F0F22A2409343084A8C10A400135199
:100560008B109B00D2588B071C0F0346A3401A43E5
:10057000024B8C10A4001A5110BD0000080001406D
:1005800000210160017101214171002181717047D9
:10059000F8B50246CD782F073F0FCD7810263540AD
:1005A000002D01D08D782F431446002011E08506E0
:1005B0002B0E0D88012686403540002D07D025687A
:1005C0000F269E40B5433E469E4035432560451C60
:1005D000E8B20828EBDB141D0D882D1200950020D1
:1005E00011E085062B0E01258540009E3540002D2B
:1005F00007D025680F269E40B5433E469E403543B2
:100600002560451CE8B20828EBDBCD78282D04D105
:1006100055690E883543556106E0CD78482D03D1E4
:1006200015690E8835431561F8BD70B54D07EB0EA1
:10063000082902DA0546203501E0054624352C4616
:100640000F269E402568B54316469E4035432560DB
:1006500070BD0246D0680840002801D001207047D4
:100660000020FCE7416170470021C943018002215D
:1006700081700421C1707047002A01D0016100E03F
:10068000416170478178002925D017490322120261
:100690008918027892109200895802789207D30E36
:1006A000FF229A40914342789207120E03789B07EB
:1006B000DB0E9A4011430C4A03231B02D218037825
:1006C0009B109B00D1500178CA06D20E01219140A7
:1006D000054A116007E00178CA06D20E0121914057
:1006E000014A80321160704700E100E010B5002837
:1006F00019DA1A4A03071B0F083B9B089B00D258C4
:100700008307DC0EFF23A3409A438B071B0E84074D
:10071000E40EA3401A43114B0407240F083CA4081D
:10072000A4001A5118E00E4A03231B02D2188308B2
:100730009B00D2588307DC0EFF23A3409A438B070C
:100740001B0E8407E40EA3401A43054B0324240226
:100750001B198408A4001A5110BD00001CED00E014
:1007600000E100E0002905D0054A52690243044B2C
:100770005A6104E0024A52698243014B5A61704750
:1007800000100240002905D0054AD2690243044BFB
:10079000DA6104E0024AD2698243014BDA617047B0
:1007A00000100240002905D0054A92690243044B1B
:1007B0009A6104E0024A92698243014B9A61704750
:1007C0000010024010B500F031F804494968F022E9
:1007D00011400909024A515CC84010BD0010024096
:1007E0001800002010B5FFF7EDFF05494968072202
:1007F00012021140090A034A515CC84010BD0000B2
:10080000001002401800002010B5FFF7DBFF05497B
:1008100049680722D2021140C90A034A515CC84004
:1008200010BD0000001002401800002070B51948EB
:1008300040680C210840042802D0082827D101E094
:10084000154870BD1348406801210904084000287C
:1008500009D01048406849000840002801D00F48DE
:1008600002E00D4800E00E4806460A480068800E87
:10087000441C08480068072109050840000D451C74
:100880003146614308462946FFF750FCD9E7024844
:10089000D7E700000010024000127A0000093D0076
:1008A000001BB70010B500F001F810BD7FB50020A7
:1008B00003900290002554480068012108435249E2
:1008C000086000BF50480068022108400290039869
:1008D000401C03900298002804D1052109020398C6
:1008E0008842EFD14848006802210840002809D01A
:1008F000012002907D24240100BF2046641E0028B0
:10090000FBD101E000200290029801287BD13F48F2
:100910003F4908603F480068102108433D4908608E
:1009200008460068C008C000086039490968481EC8
:100930003949FFF7FBFBC5B2364800682843354903
:10094000086031484068304948600846406848605F
:100950002F4800683149884207D92B484068012157
:10096000890208432849486006E027484068012179
:100970008902084324494860234840680321090448
:1009800088432149486008460068254908401E49B7
:1009900008606B4601AA1E4801682248FFF7EEFB7B
:1009A000194800681E4908401749086069460879D7
:1009B0008006097809050843134909680843124964
:1009C0000860084600680121090608430E490860CE
:1009D00000BF0D4800680121490608400028F8D0F2
:1009E0000948406880088000074948600846406818
:1009F000022108430449486000BF034840680C21B5
:100A000008400828F9D17FBD00100240006CDC02CC
:100A1000000000200020024000366E010051250237
:100A2000FFFF8F00001BB70004480068002804D0B7
:100A300002480068401E0149086070471400002009
:100A400070B50546FFF7F2FE06462946FFF76EFB36
:100A50000446601E0D49884201D901200CE0601E49
:100A60000B4948610321081FFFF740FE0020084999
:100A70008861072008610020002801D000BFFEE740
:100A80000021481EFFF732FE70BD0000FFFFFF008F
:100A900000E000E010B51648006801210843144941
:100AA00008600846406813490840114948600846F4
:100AB0000068114908400E49086008460068012195
:100AC000890488430A49086008464068C32109042C
:100AD00088430749486008460068084908400449B7
:100AE00008609F2000048860FFF7DCFE10BD000056
:100AF000001002400CC0FFF8FFFFF6FEFFFF8F0062
:100B00008269520852000A43826170470246906827
:100B10000840002801D0012070470020FCE70000B9
:100B200070B504460D460026E069302188432979D6
:100B30000843E061E06904218843A9790843E06142
:100B4000E06980088000297A0843E061A0691821E3
:100B5000884369890843A061A06904218843297BEF
:100B60000843A0610B48844203D1FFF74DFE0646BF
:100B700002E0FFF737FE064630462968FFF7D6FA4F
:100B80000009206230462968FFF7D0FA0007000FFD
:100B9000606270BD00380140CAB2026070474B21EC
:100BA000C901016030210171002181710172182198
:100BB0004181002101737047F0B585B004460D46B0
:100BC00016461F464948844245D101218803FFF754
:100BD000E9FD6846FFF7E3FF009568468680C78019
:100BE0000A990181002181811821418169462046AD
:100BF000FFF796FF01214804FFF7B4FD01210846E5
:100C0000FFF7D0FD01220921C806FFF70EFD0122E2
:100C10000A210920C006FFF708FD04A8FFF724FDFC
:100C2000611568460182012181741821C17404A9EB
:100C30000920C006FFF7ACFC21156846018204219B
:100C4000C17404A90920C006FFF7A2FC01212046B7
:100C5000FFF756FF48E02648844245D10121480469
:100C6000FFF790FD6846FFF79AFF0095684686807B
:100C7000C7800A990181002181811821418169463B
:100C80002046FFF74DFF01214804FFF76BFD0121CE
:100C90000846FFF787FD012202210920C006FFF761
:100CA000C4FC012203210920C006FFF7BEFC04A8F2
:100CB000FFF7DAFC042168460182012181741821C2
:100CC000C17404A90920C006FFF762FC0821684628
:100CD00001820421C17404A90920C006FFF758FC51
:100CE00001212046FFF70CFF05B0F0BD00380140A0
:100CF000004400400FB410B503A9044B044A029805
:100D000000F017F810BC08BC04B018472D0E0008FE
:100D10002800002002E008C8121F08C1002AFAD1EA
:100D200070477047002001E001C1121F002AFBD16B
:100D30007047FFB581B00546002706E025280AD098
:100D4000049A039990476D1C7F1C28780028F5D1E0
:100D5000384605B0F0BD002269786D1C10462E297A
:100D600013D1697804226D1C2A2909D102996D1CBE
:100D700001C9029109E00A235843303808186D1C54
:100D800029780B46303B092BF5D92B78002BDFD087
:100D9000632B07D0732B10D0049A18460399904701
:100DA0007F1C2DE002996C460B782370091D02917F
:100DB000002161706E46012104E0029940C9029150
:100DC0000021C94352070AD5002400E0641C844274
:100DD0000DDA8C42FADB325D002AF7D107E00024FD
:100DE00000E0641C8C42FCDB305D0028F9D13F1927
:100DF00004E03078049A761C03999047641EF8D278
:100E00006D1CA2E7084909688143074A1160114631
:100E10004968814351601146896881439160114658
:100E2000C9688143D16070470004014070B5044631
:100E30000D46E1B20548FFF7AFFE00BF01210348B0
:100E4000FFF764FE0028F9D0204670BD003801404D
:100E500008B57D20C000FFF7F3FD002003463022D7
:100E6000E121490200900748FFF7A6FEFFF714FBB7
:100E7000FFF7BAF904A207A109A0FFF73BFF00BFE3
:100E8000FEE700000038014031303A35333A34385B
:100E9000000000004F6374203130203230323000C7
:100EA0000D0A4D4D333246303332523854362025F8
:100EB000732025730D0A0000D80E000800000020E2
:100EC0002C000000140D0008040F00082C00002066
:100ED00004040000240D0008006CDC020000000087
:100EE00000000000010203040607080900000000DA
:100EF00000000000010203040102030406070809C0
:040F000000000000ED
:04000005080000C12E
:00000001FF
