S01C0000554152545F5072696E745F496E746572727570742E7372656334
S31508000000B8040020590E00080F0700080F0700085B
S3150800001000000000000000000000000000000000D2
S315080000200000000000000000000000000F070008A4
S3150800003000000000000000000F0700086F0B000812
S315080000400F0700080F0700080F0700080F0700082A
S315080000500F0700080F0700080F0700080F0700081A
S31508000060000000000F0700080F0700080F07000828
S315080000700F0700080F0700080F0700080F070008FA
S315080000800F07000800000000000000000F07000826
S31508000090000000000F0700080F0700080F070008F8
S315080000A0000000000F0700080F0700082D020008CF
S315080000B063020008000000000F0700080F07000889
S315080000C0F8B586B00F0016001C000C9D7B498842C7
S315080000D054D101218020C00100F052F902A800F095
S315080000E0B7F9029702A8F6B28680E4B2C480EDB2E8
S315080000F005810027878118264681704C02A92000B1
S3150800010000F06CF90121200000F0AEF901218020F1
S31508000110800200F027F90121012000F031F90122BF
S3150800012009219020C00500F051FA01220A219020E9
S31508000130C00500F04BFA684600F026FA6C468020A7
S315080001408000208001252800A070E670694690206E
S31508000150C00500F0B3F98020C00020800420E070BC
S3150800016069469020C00500F0A9F901A81B21017075
S315080001704770857001A800F03DFA55E0504988425D
S3150800018052D101218020800200F008F902A800F06F
S315080001905FF9029702A8F6B28680E4B2C480EDB28F
S315080001A005810021818118274781444C02A9200036
S315080001B000F014F90121200000F056F901218020F1
S315080001C0800200F0CFF80121012000F0D9F80122C1
S315080001D002219020C00500F0F9F9012203219020A0
S315080001E0C00500F0F3F9684600F0CEF904246D4620
S315080001F02000288001263000A870EF7069469020FC
S31508000200C00500F05BF908202880EC70694690204C
S31508000210C00500F053F901A81C21017000214170A6
S31508000220867001A800F0E6F907B0F0BD10B5234CBA
S315080002300121200000F031F9002811D00121200009
S3150800024000F036F91F48017889B2200000F021F93C
S3150800025000220121200000F00EF901201A49087039
S3150800026010BD10B5164C0121200000F016F9002823
S3150800027011D00121200000F01BF91248017889B23B
S31508000280200000F006F900220121200000F0F3F812
S3150800029001200D49087010BD38B505002800094928
S315080002A00870094C0020207001220121034800F043
S315080002B0E2F820780028FCD0280032BD003801403A
S315080002C000440040B0000020B100002000B51248EC
S315080002D001680C220A40042A02D0082A02D019E032
S315080002E0354818E00168C90306D50068800301D5BA
S315080002F0324802E0304800E0314832490A68920E36
S31508000300521C0968090D4907490F491C504300F05A
S31508000310A7F900E0284800BD0410024080B5FFF7A1
S31508000320D5FF2949294A126812091207120F895C52
S31508000330C84002BD80B5FFF7F1FF2349234A12687A
S31508000340120A5207520F895CC84002BD80B5FFF7F2
S31508000350E5FF1D491D4A1268D20A5207520F895CE9
S31508000360C84002BD00B5C9B2002904D018490A68B8
S315080003701043086003E016490A6882430A6000BD14
S3150800038000B5C9B2002904D012490A6810430860AA
S3150800039003E010490A6882430A6000BD00B5C9B285
S315080003A0002904D00C490A681043086003E00A498A
S315080003B00A6882430A6000BD00127A0000093D00FF
S315080003C0001BB70000100240000000200410024085
S315080003D014100240181002401C10024070B50400A8
S315080003E00D000020E0693021884329790143E16145
S315080003F00420C043E1690140AA790A43E261E16940
S31508000400032291432A7A0A43E261A1691822914399
S315080004106A891143A161A1690840297B0143A16149
S315080004202548844203D1FFF791FF060002E0FFF753
S3150800043081FF06003000296800F012F900092062E1
S315080004403000296800F00CF90007000F606270BDE3
S3150800045096218901016030210171002181710172A3
S315080004601822428101737047826901239A43C9B2EF
S3150800047011438161704700B5D2B2002A04D00269DF
S3150800048089B20A43026103E0026989B28A430261BA
S3150800049000BD89B2C9B20160704700B5C06889B2AB
S315080004A00840002801D0012000E00020C0B200BDAD
S315080004B089B241617047000000380140FCB50F223F
S315080004C0CB781340CC78E40602D51C008B782343FE
S315080004D004000194002635001BE0042068436F469B
S315080004E038700F880120A840074211D00198076884
S315080004F0BC46684607781000B84067468743BC463E
S31508000500684607781800B84067463843019F386040
S315080005106D1C2800C0B20828DFDB201D0190088862
S315080005200500ADB22D0AADB21AE0042070436F463D
S3150800053038702800F040C00711D501980768BC46F6
S31508000540684607781000B84067468743BC46684641
S3150800055007781800B84067463843019F3860761C0C
S315080005603000C0B20828E0DBC878282804D16069C2
S3150800057009880843606106E0C878482803D12069DD
S31508000580098808432061F3BD03490180022181706F
S315080005900421C17070470000FFFF000000B5C06865
S315080005A089B20840002801D0012000E00020C0B22E
S315080005B000BD89B24161704700B5D2B2002A02D0A7
S315080005C089B2016101E089B2416100BD10B54B07EE
S315080005D05B0F04246343C9B2082901DA203000E01E
S315080005E0243001680F249C40A143D2B29A400A43A2
S315080005F0026010BDF0B58178002923D00322154B7F
S3150800060001788910042461430478A41004256C43F6
S315080006101C59FF250678164008277E43B540AC438B
S315080006204578AD01EDB2067832400826724395400A
S3150800063025435D5001210078C006C00E814006485A
S31508000640016006E001210078C006C00E814003481B
S315080006500160F0BD00E400E000E100E080E100E0B8
S315080006600022030A8B420BD203098B4219D2430894
S315080006708B422ED2411A00D201465241104670478B
S31508000680FF2209023FD012068B4205D31212090235
S315080006908B4201D31212090203098B4219D300E0D7
S315080006A0090AC3098B4201D3CB01C01A52418309F7
S315080006B08B4201D38B01C01A524143098B4201D3A5
S315080006C04B01C01A524103098B4201D30B01C01AD0
S315080006D05241C3088B4201D3CB00C01A524183084A
S315080006E08B4201D38B00C01A524143088B4201D377
S315080006F04B00C01A5241884200D3401A5241CFD209
S3150800070001461046704708B500F002F808BDFEE736
S315080007107047000080B56E48016801220A430260EE
S315080007206C490A686C4B13400B6002686B4B1340AC
S31508000730036002686A4B134003600A68694B1340FA
S315080007400B600168684A0A4002609F2000046749F6
S31508000750086000F032F801BDFDB581B00C000094C8
S315080007600025002600E0761C042E23D2002700E090
S315080007707F1C402F1AD201983900491C4843310082
S31508000780491CFFF76DFF844201D2001B00E0201AC6
S315080007900099884206D20090380002990870300005
S315080007A00399087000980028E2D101252800C0B2F4
S315080007B00028D8D0009804B0F0BD80B500F001F844
S315080007C001BDFEB500200290019001000121404DB7
S315080007D02A680A432A6002262A6832400192029A47
S315080007E0521C0292019A002A04D1029AA023DB0025
S315080007F09A42F0D12A683240002A07D00191FA209D
S31508000800C0000100481E0029FBD100E001900198B4
S3150800081001285BD1364837490860374C20681021D3
S315080008200143216020680721884320603148006819
S31508000830401E3249FFF714FF2168C0B20843206002
S31508000840244C20682060206820602A4800682C49CB
S31508000850884205D320688021C9000143216004E04D
S3150800086020688021C900014321602068254901408C
S3150800087021601D4F2868384028606B4600AA521C24
S315080008801C4801682048FFF767FF286807402F6063
S3150800089028686946497889066A46127812050A431D
S315080008A002432A6028688021490401432960286890
S315080008B08001FCD520680321884320602068064310
S315080008C0266020680C2101400829FAD1F7BD0000EE
S315080008D000100240041002400CC0FFF8FFFFF6FEAD
S315080008E0FFFFFBFFFFFF3CFFFFFF8F0008100240E2
S315080008F0006CDC02100000200020024000366E0169
S3150800090001512502FFFFFCFF001BB70070B506006A
S315080009100800002B06D014001D002178B047641C7F
S315080009206D1EFAD170BDF8B588B002900091039299
S31508000930019309E00123039A00990298FFF7E6FF5D
S3150800094000900398401C039003980078002821D053
S315080009502528EFD1039840780399891C0391010053
S31508000960252812D0582867D0632815D064281BD0AC
S31508000970692819D06F285FD0702864D073286AD088
S31508000980752859D0782857D0DEE70098029A9047FC
S315080009900090D9E709B0F0BD019800680168001D0C
S315080009A0019A1060C9B2F0E7019800680468001D52
S315080009B001990860002C04D52D210098029A9047C9
S315080009C0009064206F2801D1082506E02021014304
S315080009D0782901D00A2500E010250B27260064286F
S315080009E003D1002C01D571420E0004007F1E049726
S315080009F030002900FFF734FE3031C8B23A2802DB4E
S31508000A0020005138091805A8C01904900170300053
S31508000A102900FFF725FE060001D0002FE6DC049C1E
S31508000A2000980B21CD1BB3D0029E2178B047641CD9
S31508000A306D1EFAD10296ABE7019909680C68091D83
S31508000A40019A1160BEE7019800680468001D0199C3
S31508000A5008607820B6E7019800680468001D0199C7
S31508000A600860200000F00CF80500009890D0029E5F
S31508000A702178B047641C6D1EFAD1029688E70000FB
S31508000A80431C0178401C0942FBD1C01A704700007C
S31508000A90F0B5020052B2002A23D503220F243C4B9C
S31508000AA005006DB22540083DAD08042675430600CD
S31508000AB076B23440083CA408042674431E59FF271E
S31508000AC0BC461400044008277C436746A740BE433B
S31508000AD08901C9B202400820424391403143595125
S31508000AE01AE02C4A0323040064B2A40804256C43C4
S31508000AF01459FF251E00064008277E43B540AC431F
S31508000B008901C9B2034008256B439940214340B285
S31508000B108008042358431150F0BD80B5411E802239
S31508000B205204914201D301200EE0401E1A49086082
S31508000B3003210020C043FFF7ABFF002017490860D8
S31508000B40072017490860002002BD10B50400FFF70A
S31508000B50BDFB2100FFF784FDFFF7DFFF002800D06B
S31508000B60FEE700210020C043FFF792FF10BD00B545
S31508000B700C480168002902D00168491E016000BDC1
S31508000B8000B50849086008680028FCD100BD0000C7
S31508000B901CED00E000E400E014E000E018E000E0EE
S31508000BA010E000E0AC00002038B5FA208000FFF71E
S31508000BB0CCFF0020009000233022E12149022C4876
S31508000BC0FFF77EFA00F05EF82A4A2B492B4800F018
S31508000BD089F819E0012220212000FFF7EDFC0FE03B
S31508000BE0012210212000FFF7E7FC20212000FFF753
S31508000BF0D5FC0028EED0002220212000FFF7DCFCDF
S31508000C00FA204000FFF7BCFF9025ED05802424025A
S31508000C1021002800FFF7C2FC002805D00022210089
S31508000C202800FFF7C9FC04E0012221002800FFF78D
S31508000C30C3FC134C08212000FFF7B0FC002805D0A0
S31508000C40002208212000FFF7B7FC04E00122082152
S31508000C502000FFF7B1FC10212000FFF79FFC0028B9
S31508000C60BED0002210212000FFF7A6FCBDE700BF7A
S31508000C7000380140740E0008680E0008180E0008B7
S31508000C8000040048F8B50121C020C002FFF76AFB3E
S31508000C906846FFF779FC6C46802000022080012612
S31508000CA0A6701025E5709027FF0569463800FFF7FE
S31508000CB005FC802109023800FFF77BFC6846FFF730
S31508000CC063FC38202080A670E570054C6946200034
S31508000CD0FFF7F4FB38212000FFF76BFCF1BD00BFDE
S31508000CE0000400480EB4C0B5020003A80190002015
S31508000CF0009001AB0121044878440C30FFF713FE3D
S31508000D00029906B0084700BF2901000070B4012304
S31508000D10002413E00168001D194202D04D466D1EDD
S31508000D2049190C60091D121F042AFAD20D009607EC
S31508000D3001D50C80AD1C1A4000D02C700268001D2D
S31508000D40002AE7D170BC704730B50168411844687D
S31508000D5062088A188368E40704D54C461B1901E023
S31508000D60641C06D191420BD00C7864B2491C0D78EC
S31508000D70491C1D705B1C002CF2D4641EF7D5F1E7E4
S31508000D800C3030BD10B5074979441831064C7C44FF
S31508000D90163404E0081D0A68891888470100A1422C
S31508000DA0F8D110BD080000002400000061FFFFFF15
S31508000DB0580000005C000020000000008DFFFFFFC7
S31508000DC0CC000000760000000000002000F00DF8BE
S31508000DD0002801D0FFF7D6FF00BF00BF002000BFE4
S31508000DE000BFFFF7E1FE00F002F80120704780B56A
S31508000DF000F002F801BD00000746384600F002F888
S31508000E00FBE7000080B500BF00BF024A11001820AA
S31508000E10ABBEFBE7260002000D0A4D4D33324630C5
S31508000E203332523854362025732025730D0A0000B4
S31508000E3038B505000C00200000F006F8A04200D0E6
S31508000E400025280032BD000080B50249FFF724FAC4
S31508000E5002BD00BF14000020014880470148004732
S31508000E6015070008810E00084A756E2031382032B1
S31508000E703032300031333A32373A3131000000002F
S31508000E8000BF00BF00BF00BFFFF7A0FFFC002301A3
S31508000E900203040102030406070809006CDC0202C7
S31508000EA00401015C000020AC0000205C0000205C0E
S31508000EB0000020FC00035C000020FC00075800002E
S30C08000EC02044000020E000B9
S70508000E8163
