:020000040800F2
:1000000030040020D5000008FB000008FD000008B7
:1000100000000000000000000000000000000000E0
:10002000000000000000000000000000FF000008C9
:10003000000000000000000001010008F5080008B1
:100040000501000805010008050100080501000878
:10005000050100084D02000805010008050100081F
:100060000000000005010008050100080501000866
:100070000501000805010008050100080501000848
:100080000501000800000000000000000501000854
:100090000000000005010008050100080501000836
:1000A0000000000005010008050100080501000826
:1000B0000501000800000000050100080501000816
:1000C0000348854600F048F8004800471D0D000829
:1000D000300400200C4880F308880C480168090EA1
:1000E0000B4A914205D10B480B4901600B480C4962
:1000F00001600C4880470C480047FEE7FEE7FEE73A
:10010000FEE7FEE7FEE700003004002004000000E8
:100110001F00000018100240010000000000014014
:100120000000000061090008C100000830B50B465E
:10013000014600202022012409E00D46D5409D42C1
:1001400005D31D469540491B254695404019154647
:10015000521E002DF1DC30BD064C0125064E05E097
:10016000E36807CC2B430C3C98471034B442F7D3D8
:10017000FFF7AAFF200E0008400E0008FFB583B06D
:100180000C46029400200190002726E000261CE087
:10019000721C039951430846791CFFF7C7FF0546B7
:1001A000A54201D9281B00E0601B05460298A84221
:1001B00004D90295059806700698077002980028E1
:1001C00002D10120019002E0761C402EE0D300BF56
:1001D0000198002800D002E07F1C042FD6D300BF76
:1001E000029807B0F0BD000008B5012103204004CB
:1001F00000F014FA684600F019F90121C9036846B5
:100200000180012181701021C17069460920C0065A
:1002100000F0A0F80121C9030920C00600F004F98C
:10022000684600F003F93821684601800121817099
:100230001021C1706946044800F08CF8382102484A
:1002400000F0F2F808BD00000004004810B50220DC
:1002500000F00CF8002802D0022000F001F810BDD8
:100260000149486170470000000401400146074809
:1002700040690840002806D004480068084000286B
:1002800001D0012070470020FCE70000000401407D
:1002900000B50346186800F01BFD987900282FD0A0
:1002A0001879002806D117480068196808431549CD
:1002B000086005E013484068196808431149486020
:1002C000587902280CD10F488068196808430D49F5
:1002D00088600846C068196808430A49C8600FE08A
:1002E0005879002806D107488068196808430549ED
:1002F000886005E00348C068196808430149C86080
:1003000000BD00000004014010B50D4A8B109B0099
:10031000D3588A07140F0F22A2409343084A8C1027
:10032000A40013518B109B00D2588B071C0F03465F
:10033000A3401A43024B8C10A4001A5110BD0000B8
:10034000080001400021016001710121417100217B
:1003500081717047F8B50246CD782F073F0FCD78F1
:1003600010263540002D01D08D782F4314460020F3
:1003700011E085062B0E0D88012686403540002DA4
:1003800007D025680F269E40B5433E469E40354324
:100390002560451CE8B20828EBDB141D0D882D12E2
:1003A0000095002011E085062B0E01258540009E5A
:1003B0003540002D07D025680F269E40B5433E46A8
:1003C0009E4035432560451CE8B20828EBDBCD781C
:1003D000282D04D155690E883543556106E0CD7846
:1003E000482D03D115690E8835431561F8BD70B5E8
:1003F0004D07EB0E082902DA0546203501E00546D7
:1004000024352C460F269E402568B54316469E404F
:100410003543256070BD0246D0680840002801D0F1
:10042000012070470020FCE7416170470021C9436B
:100430000180022181700421C1707047002A01D01F
:10044000016100E04161704708B57D20C00000F007
:100450005DFA0020034630224B21C9010090064876
:1004600000F010FBFFF7C0FE00F090F803A206A119
:1004700008A000F0A5FB08BD0038014031333A3335
:10048000363A3534000000004F6374203232203297
:10049000303230000D0A4D4D33324630333252384F
:1004A00054362025732025730D0A00008178002919
:1004B00025D017490322120289180278921092005F
:1004C000895802789207D30EFF229A4091434278CE
:1004D0009207120E03789B07DB0E9A4011430C4AD9
:1004E00003231B02D21803789B109B00D150017884
:1004F000CA06D20E01219140054A116007E0017839
:10050000CA06D20E01219140014A80321160704723
:1005100000E100E010B5002819DA1A4A03071B0FA2
:10052000083B9B089B00D2588307DC0EFF23A340A7
:100530009A438B071B0E8407E40EA3401A43114B0A
:100540000407240F083CA408A4001A5118E00E4A1E
:1005500003231B02D21883089B00D2588307DC0EAA
:10056000FF23A3409A438B071B0E8407E40EA3408E
:100570001A43054B032424021B198408A4001A51B2
:1005800010BD00001CED00E000E100E01FB50121FE
:10059000880400F043F80121084600F05FF80121CB
:1005A0000846FFF7B1FE6846FFF7CCFE0220009038
:1005B000002168460171417101218171FFF768FED8
:1005C00003A8FFF733FF0221684681812821C17308
:1005D00003A90748FFF7BEFE052168460172022104
:1005E00041720121817202A8FFF760FF1FBD000068
:1005F00000040048074800680621084305490860D0
:1006000005480069042108430349086100BF00BF91
:1006100030BF70470070004000ED00E0002905D0B9
:10062000054A52690243044B5A6104E0024A526986
:100630008243014B5A61704700100240002905D0E7
:10064000054AD2690243044BDA6104E0024AD269E6
:100650008243014BDA61704700100240002905D047
:10066000054A92690243044B9A6104E0024A926986
:100670008243014B9A6170470010024010B500F0B0
:1006800031F804494968F02211400909024A515CD5
:10069000C84010BD001002401800002010B5FFF740
:1006A000EDFF05494968072212021140090A034A71
:1006B000515CC84010BD000000100240180000202E
:1006C00010B5FFF7DBFF054949680722D202114048
:1006D000C90A034A515CC84010BD00000010024026
:1006E0001800002070B5194840680C210840042803
:1006F00002D0082827D101E0154870BD1348406892
:10070000012109040840002809D010484068490028
:100710000840002801D00F4802E00D4800E00E48D4
:1007200006460A480068800E441C084800680721F5
:1007300009050840000D451C31466143084629461D
:10074000FFF7F4FCD9E70248D7E7000000100240A9
:1007500000127A0000093D00001BB70010B500F040
:1007600001F810BD7FB50020039002900025544889
:100770000068012108435249086000BF50480068E2
:100780000221084002900398401C03900298002820
:1007900004D10521090203988842EFD14848006836
:1007A00002210840002809D0012002907D24240164
:1007B00000BF2046641E0028FBD101E0002002900B
:1007C000029801287BD13F483F4908603F480068B4
:1007D000102108433D49086008460068C008C00071
:1007E000086039490968481E3949FFF79FFCC5B2BE
:1007F0003648006828433549086031484068304928
:1008000048600846406848602F480068314988427F
:1008100007D92B48406801218902084328494860CC
:1008200006E02748406801218902084324494860BE
:100830002348406803210904884321494860084649
:100840000068254908401E4908606B4601AA1E48F9
:1008500001682248FFF792FC194800681E490840C9
:100860001749086069460879800609780905084330
:1008700013490968084312490860084600680121C5
:10088000090608430E49086000BF0D4800680121B1
:10089000490608400028F8D00948406880088000D0
:1008A00007494860084640680221084304494860F7
:1008B00000BF034840680C2108400828F9D17FBDDB
:1008C00000100240006CDC0200000020002002400A
:1008D00000366E0100512502FFFF8F00001BB7009C
:1008E0000349086000BF024909680029FBD170472D
:1008F0001400002004480068002804D00248006862
:10090000401E0149086070471400002070B505467C
:10091000FFF7E8FE06462946FFF708FC0446601E7E
:100920000D49884201D901200CE0601E0B49486145
:100930000321081FFFF7EEFD00200849886107200A
:1009400008610020002801D000BFFEE70021481EFA
:10095000FFF7E0FD70BD0000FFFFFF0000E000E0DA
:1009600010B516480068012108431449086008467C
:100970004068134908401149486008460068114919
:1009800008400E4908600846006801218904884330
:100990000A49086008464068C3210904884307499A
:1009A00048600846006808490840044908609F20DC
:1009B00000048860FFF7D2FE10BD00000010024066
:1009C0000CC0FFF8FFFFF6FEFFFF8F0082695208A0
:1009D00052000A438261704702469068084000282E
:1009E00001D0012070470020FCE7000070B50446EC
:1009F0000D460026E0693021884329790843E061EB
:100A0000E06904218843A9790843E061E06980082E
:100A10008000297A0843E061A06918218843698928
:100A20000843A061A06904218843297B0843A06191
:100A30000B48844203D1FFF743FE064602E0FFF76E
:100A40002DFE064630462968FFF770FB000920623C
:100A500030462968FFF76AFB0007000F606270BD2F
:100A600000380140CAB2026070474B21C9010160E1
:100A70003021017100218171017218214181002111
:100A800001737047F0B585B004460D4616461F4603
:100A90004948844245D101218803FFF7DFFD6846BC
:100AA000FFF7E3FF009568468680C7800A990181B9
:100AB000002181811821418169462046FFF796FF78
:100AC00001214804FFF7AAFD01210846FFF7C6FDF2
:100AD00001220921C806FFF78AFC01220A21092008
:100AE000C006FFF784FC04A8FFF7A0FC6115684668
:100AF0000182012181741821C17404A90920C00652
:100B0000FFF728FC2115684601820421C17404A95D
:100B10000920C006FFF71EFC01212046FFF756FF03
:100B200048E02648844245D101214804FFF786FD6C
:100B30006846FFF79AFF009568468680C7800A9945
:100B40000181002181811821418169462046FFF7FA
:100B50004DFF01214804FFF761FD01210846FFF721
:100B60007DFD012202210920C006FFF740FC012281
:100B700003210920C006FFF73AFC04A8FFF756FC42
:100B8000042168460182012181741821C17404A9DD
:100B90000920C006FFF7DEFB082168460182042118
:100BA000C17404A90920C006FFF7D4FB0121204627
:100BB000FFF70CFF05B0F0BD0038014000440040D5
:100BC0000FB410B503A9044B044A029800F017F8BB
:100BD00010BC08BC04B01847F90C0008280000201D
:100BE00002E008C8121F08C1002AFAD170477047F6
:100BF000002001E001C1121F002AFBD17047FFB5A0
:100C000081B00546002706E025280AD0049A0399FA
:100C100090476D1C7F1C28780028F5D1384605B018
:100C2000F0BD002269786D1C10462E2913D1697819
:100C300004226D1C2A2909D102996D1C01C9029157
:100C400009E00A235843303808186D1C29780B46F0
:100C5000303B092BF5D92B78002BDFD0632B07D045
:100C6000732B10D0049A1846039990477F1C2DE0EF
:100C700002996C460B782370091D02910021617066
:100C80006E46012104E0029940C902910021C94346
:100C900052070AD5002400E0641C84420DDA8C421D
:100CA000FADB325D002AF7D107E0002400E0641C83
:100CB0008C42FCDB305D0028F9D13F1904E030782C
:100CC000049A761C03999047641EF8D26D1CA2E723
:100CD000084909688143074A116011464968814300
:100CE000516011468968814391601146C96881430A
:100CF000D16070470004014070B504460D46E1B272
:100D00000548FFF7AFFE00BF01210348FFF764FE6F
:100D10000028F9D0204670BD00380140002401258C
:100D2000002679E0012D21D10025FFF78DFB00245D
:100D30001AE00121C9030920C006FFF76CFB002857
:100D400007D000220121C9030920C006FFF776FB66
:100D500005E00122D1030920C006FFF76FFB6420E4
:100D6000FFF7BEFD601CC4B20A2CE2DB0121C903FF
:100D70000920C006FFF74FFB002807D00022012101
:100D8000C9030920C006FFF759FB05E00122D10382
:100D90000920C006FFF752FB08212048FFF73BFB64
:100DA000002805D0002208211C48FFF747FB04E07B
:100DB000012208211948FFF741FB10211748FFF7CE
:100DC0002AFB002805D0002210211448FFF736FB2B
:100DD00004E0012210211148FFF730FB20210F48C9
:100DE000FFF719FB002805D0002220210B48FFF750
:100DF00025FB04E0012220210848FFF71FFBFF200C
:100E0000F530FFF76DFD3046711CCEB20A2803D1D4
:100E1000FFF7F0FB0125002684E7000000040048EE
:100E2000400E0008000000202C000000E00B00082D
:100E30006C0E00082C00002004040000F00B0008D9
:100E4000006CDC020000000000000000010203044E
:100E5000060708090000000000000000010203046A
:0C0E60000102030406070809000000005E
:04000005080000C12E
:00000001FF
