:020000040800F2
:10000000301F00204D010008730100087501000831
:1000100000000000000000000000000000000000E0
:100020000000000000000000000000007701000850
:1000300000000000000000000B010008C1070008DC
:100040007D0100087D0100087D0100087D01000898
:100050007D0100087D0100087D0100087D01000888
:10006000000000007D0100087D0100087D010008FE
:100070007D0100087D0100087D0100087D01000868
:100080007D01000800000000000000007D01000864
:10009000000000007D0100087D0100087D010008CE
:1000A000000000007D0100087D0100087D010008BE
:1000B0007D010008000000007D0100087D010008AE
:1000C0000348854600F0A8F800480047290B0008BF
:1000D000301F0020084B19680868203080F3098819
:1000E000022080F31488BFF36F8F3FBCAE4608BC7C
:1000F00004BC62B61847000024000020EFF3108013
:1001000072B6704780F310887047EFF309800E4B8A
:100110001A6820381060F0C044464D4656465F4687
:10012000F0C008B572B601F095FC62B60CBC11685F
:1001300008681030F0C8A046A946B246BB4680F316
:1001400009882038F0C81847240000200C4880F3A4
:1001500008880C480168090E0B4A914205D10B48EA
:100160000B4901600B480C4901600C4880470C4862
:100170000047FEE7FEE7FEE7FEE7FEE7FEE70000DA
:10018000301F0020040000001F0000001810024073
:1001900001000000000001400000000039080008D4
:1001A000C100000830B50B46014600202022012482
:1001B00009E00D46D5409D4205D31D469540491B9B
:1001C0002546954040191546521E002DF1DC30BDE4
:1001D00003460B439B0703D009E008C9121F08C060
:1001E000042AFAD203E00B780370401C491C521E0B
:1001F000F9D27047D2B201E00270401C491EFBD216
:1002000070470022F6E710B513460A460446194621
:10021000FFF7F0FF204610BD064C0125064E05E015
:10022000E36807CC2B430C3C98471034B442F7D317
:10023000FFF74AFF54240008742400081CB500206E
:100240000121034680220091019011A1124801F082
:10025000BFFE0020022103468022009101900FA1E1
:10026000104801F0B5FE00200321034680220091D2
:1002700001900DA10E4801F0ABFE002004210346C1
:100280008022009101900BA10C4801F0A1FE1CBD41
:100290005461736B310000003D1600085461736BAC
:1002A00032000000751600085461736B33000000C3
:1002B000A51600085461736B34000000D5160008C1
:1002C000FFB583B00C46029400200190002726E081
:1002D00000261CE0721C039951430846791CFFF765
:1002E00061FF0546A54201D9281B00E0601B0546B9
:1002F0000298A84204D902950598067006980770DE
:100300000298002802D10120019002E0761C402EC4
:10031000E0D300BF0198002800D002E07F1C042F2A
:10032000D6D300BF029807B0F0BD000008B5012188
:100330000320400400F0E2F8684600F095F801213F
:10034000C90368460180012181701021C17069468E
:100350000920C00600F01CF80121C9030920C006CD
:1003600000F080F8684600F07FF838216846018088
:10037000012181701021C1706946044800F008F81D
:100380003821024800F06EF808BD00000004004863
:10039000F8B50246CD782F073F0FCD7810263540AF
:1003A000002D01D08D782F431446002011E08506E2
:1003B0002B0E0D88012686403540002D07D025687C
:1003C0000F269E40B5433E469E4035432560451C62
:1003D000E8B20828EBDB141D0D882D1200950020D3
:1003E00011E085062B0E01258540009E3540002D2D
:1003F00007D025680F269E40B5433E469E403543B4
:100400002560451CE8B20828EBDBCD78282D04D107
:1004100055690E883543556106E0CD78482D03D1E6
:1004200015690E8835431561F8BD70B54D07EB0EA3
:10043000082902DA0546203501E0054624352C4618
:100440000F269E402568B54316469E4035432560DD
:1004500070BD0246D0680840002801D001207047D6
:100460000020FCE7416170470021C943018002215F
:1004700081700421C1707047002A01D0016100E041
:100480004161704710B5002819DA1A4A03071B0F9B
:10049000083B9B089B00D2588307DC0EFF23A34038
:1004A0009A438B071B0E8407E40EA3401A43114B9B
:1004B0000407240F083CA408A4001A5118E00E4AAF
:1004C00003231B02D21883089B00D2588307DC0E3B
:1004D000FF23A3409A438B071B0E8407E40EA3401F
:1004E0001A43054B032424021B198408A4001A5143
:1004F00010BD00001CED00E000E100E0002905D087
:10050000054A52690243044B5A6104E0024A5269A7
:100510008243014B5A61704700100240002905D008
:10052000054AD2690243044BDA6104E0024AD26907
:100530008243014BDA61704700100240002905D068
:10054000054A92690243044B9A6104E0024A9269A7
:100550008243014B9A6170470010024010B500F0D1
:1005600031F804494968F02211400909024A515CF6
:10057000C84010BD001002401400002010B5FFF765
:10058000EDFF05494968072212021140090A034A92
:10059000515CC84010BD0000001002401400002053
:1005A00010B5FFF7DBFF054949680722D202114069
:1005B000C90A034A515CC84010BD00000010024047
:1005C0001400002070B5194840680C210840042828
:1005D00002D0082827D101E0154870BD13484068B3
:1005E000012109040840002809D01048406849004A
:1005F0000840002801D00F4802E00D4800E00E48F6
:1006000006460A480068800E441C08480068072116
:1006100009050840000D451C31466143084629463E
:10062000FFF7C0FDD9E70248D7E7000000100240FD
:1006300000127A0000093D00001BB70010B500F061
:1006400001F810BD7FB500200390029000255448AA
:100650000068012108435249086000BF5048006803
:100660000221084002900398401C03900298002841
:1006700004D10521090203988842EFD14848006857
:1006800002210840002809D0012002907D24240185
:1006900000BF2046641E0028FBD101E0002002902C
:1006A000029801287BD13F483F4908603F480068D5
:1006B000102108433D49086008460068C008C00092
:1006C000086039490968481E3949FFF76BFDC5B212
:1006D0003648006828433549086031484068304949
:1006E00048600846406848602F48006831498842A1
:1006F00007D92B48406801218902084328494860EE
:1007000006E02748406801218902084324494860DF
:10071000234840680321090488432149486008466A
:100720000068254908401E4908606B4601AA1E481A
:1007300001682248FFF7C4FD194800681E490840B7
:100740001749086069460879800609780905084351
:1007500013490968084312490860084600680121E6
:10076000090608430E49086000BF0D4800680121D2
:10077000490608400028F8D00948406880088000F1
:100780000749486008464068022108430449486018
:1007900000BF034840680C2108400828F9D17FBDFC
:1007A00000100240006CDC0200000020002002402B
:1007B00000366E0100512502FFFF8F00001BB700BD
:1007C00010B5FFF79BFC044601F048FC002803D05D
:1007D00001200007024948602046FFF793FC10BD46
:1007E00000ED00E070B50546FFF7ECFE0646294631
:1007F000FFF7D8FC0446601E0D49884201D901204C
:100800000CE0601E0B4948610321081FFFF73AFE08
:10081000002008498861072008610020002801D0D5
:1008200000BFFEE70021481EFFF72CFE70BD000050
:10083000FFFFFF0000E000E010B51648006801214E
:1008400008431449086008464068134908401149A4
:10085000486008460068114908400E49086008468B
:1008600000680121890488430A49086008464068F5
:10087000C3210904884307494860084600680849BD
:100880000840044908609F2000048860FFF7D6FEF6
:1008900010BD0000001002400CC0FFF8FFFFF6FE84
:1008A000FFFF8F008269520852000A43826170473D
:1008B000024690680840002801D0012070470020BF
:1008C000FCE7000070B504460D460026E0693021C3
:1008D000884329790843E061E06904218843A979C4
:1008E0000843E061E06980088000297A0843E061FC
:1008F000A0691821884369890843A061A06904217F
:100900008843297B0843A0610B48844203D1FFF749
:1009100047FE064602E0FFF731FE064630462968EC
:10092000FFF740FC0009206230462968FFF73AFCD7
:100930000007000F606270BD00380140CAB202605B
:1009400070474B21C9010160302101710021817183
:10095000017218214181002101737047F0B585B003
:1009600004460D4616461F464948844245D101219A
:100970008803FFF7E3FD6846FFF7E3FF009568464D
:100980008680C7800A9901810021818118214181D7
:1009900069462046FFF796FF01214804FFF7AEFDA8
:1009A00001210846FFF7CAFD01220921C806FFF709
:1009B0003CFD01220A210920C006FFF736FD04A8EC
:1009C000FFF752FD611568460182012181741821EB
:1009D000C17404A90920C006FFF7DAFC2115684696
:1009E00001820421C17404A90920C006FFF7D0FCCC
:1009F00001212046FFF756FF48E02648844245D1B2
:100A000001214804FFF78AFD6846FFF79AFF009529
:100A100068468680C7800A9901810021818118215A
:100A2000418169462046FFF74DFF01214804FFF749
:100A300065FD01210846FFF781FD01220221092001
:100A4000C006FFF7F2FC012203210920C006FFF7D0
:100A5000ECFC04A8FFF708FD04216846018201218F
:100A600081741821C17404A90920C006FFF790FC05
:100A70000821684601820421C17404A90920C00626
:100A8000FFF786FC01212046FFF70CFF05B0F0BD03
:100A9000003801400044004010B5024A024900F00D
:100AA00022F810BD050B00089800002030B47446F1
:100AB000641E2578641CAB4204D3635D5B00E318BD
:100AC00030BC18471D46F8E702E008C8121F08C1ED
:100AD000002AFAD170477047002001E001C1121FBF
:100AE000002AFBD17047F8B516460F46044600258C
:100AF00003E03946B047641C6D1C20780028F8D10B
:100B00002846F8BD70B504460D46E1B20548FFF72A
:100B100015FF00BF01210348FFF7CAFE0028F9D0E6
:100B2000204670BD0038014008B57D20C000FFF7A9
:100B300059FEFFF7FBFB002003463022E12149026A
:100B400000900648FFF70AFF05A0FFF7A5FFFFF793
:100B500075FB00F03BFF002008BD0000003801409D
:100B60004D4D33325445535400000000F8B505464E
:100B70000E461748076817480068001D00F04AFD38
:100B8000681C002808D1002E06D012480168091DF3
:100B9000114800F0E2FD1AE07C190E48006844603C
:100BA000BC4207D20B480168091D0C48006800F0E0
:100BB000B9FD0CE007480168091D0948006800F00C
:100BC000B1FD08480068844201D206480460F8BDBF
:100BD0003800002024000020900100202C0000207C
:100BE000280000205400002010B5044600F0C2FD8B
:100BF00022480068401C21490860214800680028FC
:100C000008D11F4804600846006801280ED100F092
:100C1000CFF90BE01B480068002807D1184800688E
:100C2000C06AE16A884201D8154804601648006825
:100C3000401C1549086008460068E0631349E06AF3
:100C40000968884202D91149E06A08601422E16A01
:100C500051430F4A8818211D00F07FFD00F098FDD8
:100C600008480068002807D005480068C06AE16AA3
:100C7000884201D200F0FEFD10BD000034000020CB
:100C80002400002040000020500000203C000020F4
:100C9000DC00002010B500F06DFD11480068002850
:100CA0001BD1104800F02EFD0F4800F02BFD0D4821
:100CB0000E4908600C480E49086000220C210220F1
:100CC00000F024FF0649086008460068002804D0A8
:100CD00008A10348006800F0D9FD00F059FD10BDDF
:100CE00068000020A4010020B8010020600000205E
:100CF00064000020546D72510000000010B516E031
:100D000000F038FD0C48C068C468201D00F082FC6B
:100D10000A480068401E0949086009480068401EEA
:100D20000749086000F034FD204600F061F80448EF
:100D300000680028E4D110BD7C01002034000020B0
:100D40003000002070B504460D46206C00280ED0FF
:100D5000216CE0684118E160A168E068884201D335
:100D60002168E1602846226CE168FFF731FA70BD26
:100D7000F8B504460F46154600200090A66B206C7F
:100D8000002809D1206800282ED1A06801F004FABB
:100D900000900020A06027E0002D0FD13946226C82
:100DA0006068FFF715FA216C606840186060A16800
:100DB0006068884218D32068606015E03946226C6C
:100DC000E068FFF705FA216CE068411AE1602168EC
:100DD000E068884203D2216CA068411AE160022DCC
:100DE00002D1002E00D0761E701CA0630098F8BDC2
:100DF00010B50446206B00F0DFFC204600F0DCFC60
:100E000010BD00000146094A12681268002A01D18B
:100E1000012200E000220A600A68002A04D1034A85
:100E20001268D268106800E000207047600000205F
:100E300030B5184B18484407640F002C05D0C01D6E
:100E4000C008C000144C041B1B1B0246134C22603C
:100E50000024124D6C60D0180838C008C000104C37
:100E6000206000240E4D2D686C600D4D2D682C60A7
:100E70001146441A4C600A4C24680C60094D4C68B9
:100E80002C60094D4C682C600124E407074D2C6050
:100E900030BD000064190000CC0100207400002067
:100EA0007C000020840000208000002090000020B2
:100EB00000BFFFF723FF034800680128F9D900F0BD
:100EC000D9FCF6E7DC000020FFB581B006460D46F0
:100ED00017460A9C002D01D1246000E02760E663DC
:100EE00025640121204600F047FE4C210498085556
:100EF00005B0F0BDFFB581B00E460A9F0C9C039A69
:100F00009100A522206BFFF775F9216B0398401E15
:100F10008000081800900098C008C0000090009859
:100F20004007400F002801D1012000E000200028E8
:100F300002D172B600BFFEE7002E11D0002508E0F6
:100F4000715D204634304155705D002800D102E0CB
:100F50006D1C052DF4D300BF00213820015502E09F
:100F6000002134200155052F00D30427E762676470
:100F70000020A064201D00F0D2FB2046183000F0B5
:100F8000CEFB24610520C01BA06164620021E164E6
:100F900050200155049A0199009800F02BFB206025
:100FA0000B98002801D00B98046005B0F0BD00003C
:100FB00010B5002406E0142161430E4A881800F0A1
:100FC000A1FB641C052CF6D30B4800F09BFB0B48DF
:100FD00000F098FB0A4800F095FB0A4800F092FBED
:100FE000094800F08FFB0448084908600348084995
:100FF000086010BDDC0000204001002054010020EA
:10100000680100207C0100209001002028000020C1
:101010002C00002010B50146164800E00068036867
:101020008B42FBD3024643689B188B4204D1436832
:101030004C681B19436001460A464B689B180468BC
:10104000A34211D10C4C03682468A34208D04B681A
:10105000046864681B194B6003681B680B6005E03B
:10106000054B1B680B6001E003680B60884200D0F1
:10107000016010BD740000207C000020F8B504461B
:101080000D4616461F460020009065602461B5425B
:101090000CD8F01BA169884202D30120009011E016
:1010A000211D0948006800F03DFB0BE0BE4204D260
:1010B000BD4202D30120009004E0211D03480068D6
:1010C00000F030FB0098F8BD6400002060000020B4
:1010D00070B5054600F04EFBA86B002801D1012435
:1010E00000E0002400F054FB204670BD70B50546BA
:1010F00000F040FBA86BE96B884201D1012400E0BD
:10110000002400F045FB204670BD0000F8B5054600
:101110000F4617480068C068C468201D00F07AFABE
:101120002820005D04210840002817D0A06941193B
:101130002B463A462046FFF7A1FF002814D0002096
:1011400003462A4601460090204601F049F906462A
:10115000002E02D172B600BFFEE705E02820005D38
:1011600041084900282001552046216A8847F8BDDA
:101170006000002070B586B082E0039800287FDB15
:10118000059C6069002801D1012000E000200028B2
:1011900002D1201D00F03EFA02A800F0CFF805466B
:1011A00003980300FFF782FC0A0A0608353D590739
:1011B00009363E6A00BF00BF00BF00BF2820005DA7
:1011C00001210843282108550498A2698118034683
:1011D0002A462046FFF752FF002819D02046216AF0
:1011E00088472820005D04210840002810D00020F6
:1011F00000900498A169421800231946204601F086
:10120000EFF80646002E02D172B600BFFEE700BF1F
:1012100035E000BF2820005D410849002820015525
:101220002DE000BF2820005D01210843282108553A
:101230000498A061A069002801D0012000E00020EE
:10124000002802D172B600BFFEE7A06941192B4603
:101250002A462046FFF712FF11E02820005D0221F8
:101260000840002803D1204600F0A6FA05E0282017
:10127000005D410849002820015500E000BF00BF83
:10128000002203A90448006800F0C9FD002800D02E
:1012900073E706B070BD000068000020F8B5054691
:1012A0000C4600F0CFFB684600F048F80646009870
:1012B000002822D1002C08D1B54206D800F0F4FF56
:1012C00031462846FFF722FF19E0002C08D00C48D1
:1012D00000680068002801D1012000E000200446D9
:1012E000A91B22460748006800F0E6FA00F0DCFF80
:1012F000002804D100F0BEFA01E000F0D5FFF8BDEF
:1013000064000020680000200A4800680068002887
:1013100001D1012000E00020002804D00020C043BB
:101320000549086005E003480068C0680068024994
:1013300008607047280000205400002070B5044663
:1013400000F086FE054607480068854204D200F09A
:101350000BF80120206001E00020206001480560BA
:10136000284670BD70000020FEB52EE021480068C0
:10137000C06805681F480068C068C468201D00F088
:1013800049F92046216A88472820005D0421084049
:1013900000281AD0A0694619AE4207D966602461B8
:1013A000211D1448006800F0BDF90EE0002003463E
:1013B0002A4601460090204601F012F80746002F09
:1013C00002D172B600BFFEE700BF0A48006800689D
:1013D000002801D1012000E000200028C6D00548E7
:1013E00000680190044800680249086002490198B9
:1013F0000860FEBD6000002064000020074800680F
:10140000401C002801D1012000E00020002802D16A
:1014100072B600BFFEE772B600BFFEE79400002080
:1014200008B500BF6846FFF7EDFC0446204600996A
:10143000FFF734FFFFF79EFEF4E770B5044600F0B7
:1014400099F94520055713E0606A002801D1012071
:1014500000E00020002808D12046243000F0E0FE03
:10146000002803D000F07CFA00E003E0681E45B2DB
:10147000002DE9DC00BF0021C9434520015500F0E3
:1014800087F900F077F94420055713E02069002818
:1014900001D1012000E0002000280AD120461030B0
:1014A00000F0BEFE002801D000F05AFA681E45B2D6
:1014B00000E001E0002DE9DC00BF0021C943442029
:1014C000015500F065F970BDF8B5044600200090A4
:1014D00000F0B8FA41480068002801D1FFF7A8FCE5
:1014E0003F4800682040002866D1002C15D0083401
:1014F0006007400F002810D06007400F0821081A2D
:1015000004196007400F002801D1012000E00020ED
:10151000002802D172B600BFFEE7002C4CD0314843
:101520000068844248D8304E3046056801E02E46B7
:101530002D686868A04202D228680028F7D12748A1
:101540000068854238D030680830009028683060E4
:101550006868001B102813D92F197807400F00283E
:1015600001D1012000E00020002802D172B600BFA6
:10157000FEE76868001B78606C603846FFF74AFD3C
:10158000184968680968081A16490860084600681A
:1015900016490968884203D2124800681349086056
:1015A0000F4968680968084368600020286010488F
:1015B0000068401C0E49086000F076FE0098400765
:1015C000400F002801D1012000E00020002802D1B6
:1015D00072B600BFFEE70098F8BD00007C00002056
:1015E0009000002080000020740000208400002073
:1015F00088000020001F01231B060360001F0160FC
:10160000001F034B0360143802602038704700004D
:10161000FD13000801460A694B68886898608B686A
:10162000486858605068884201D18868506000203E
:1016300008611068401E10601068704700BF0121EB
:10164000C9030920C006FEF704FF002807D00022C6
:101650000121C9030920C006FEF70EFF05E00122A3
:10166000D1030920C006FEF707FF642000F04AF905
:10167000E5E7000000BF08210948FEF7EAFE002860
:1016800005D0002208210648FEF7F6FE04E00122FC
:1016900008210348FEF7F0FE642000F033F9EAE782
:1016A0000004004800BF10210948FEF7D2FE0028C0
:1016B00005D0002210210648FEF7DEFE04E00122DC
:1016C00010210348FEF7D8FE642000F01BF9EAE77A
:1016D0000004004800BF20210948FEF7BAFE002898
:1016E00005D0002220210648FEF7C6FE04E00122B4
:1016F00020210348FEF7C0FE642000F003F9EAE76A
:10170000000400480146083141600021C94381605E
:1017100001460831C160016100210160704700216C
:101720000161704710B502460B685C1C002C01D1AA
:10173000106907E01046083000E0406844682468FB
:101740009C42FAD944684C604C68A1608860416052
:101750000A611468641C146010BD42684A60936892
:101760008B60936859609160086103685B1C03603B
:101770007047000072B605480068401C03490860C5
:10178000BFF34F8FBFF36F8F7047000094000020AE
:1017900008480068002802D172B600BFFEE705487D
:1017A0000068401E0349086008460068002800D110
:1017B00062B670479400002070B506463546002E8C
:1017C0003AD0083D2C461D49606809680840002849
:1017D00001D0012000E00020002802D172B600BF35
:1017E000FEE72068002801D1012000E00020002849
:1017F00002D172B600BFFEE7104960680968084070
:10180000002819D02068002816D10C4960680968A2
:101810008843606000F016F909496068096840185B
:10182000074908602046FFF7F5FB06480068401CA2
:101830000449086000F038FD70BD000090000020F1
:10184000800000208C00002010B5002007490861AE
:1018500088617D21C90006480068FEF7A3FC401E90
:10186000024948610720086110BD000000E000E067
:10187000000000200120000703494860BFF34F8F9C
:10188000BFF36F8F7047000000ED00E010B5024617
:1018900000200BE0C300074CE358002B05D1C30028
:1018A000E150C3001B195A6002E0401C0828F1D324
:1018B00000BF10BD9C000020F8B505460E46174637
:1018C0002C46FFF757FF44210857401C002802D13F
:1018D00000214420015545210857401C002802D111
:1018E000002145200155FFF753FFA06B002805D1CB
:1018F0003A4631462046243000F04EF82046FFF7A5
:101900009CFDF8BD70B504460025002C14D00D4890
:101910000068002801D1012000E00020002802D149
:1019200072B600BFFEE700F08DF800212046FFF7F9
:101930001DF900F0B9FC0546002D01D1FFF79AFF13
:1019400070BD00005C000020034909680160034984
:1019500009684160704700004C00002038000020FA
:1019600001200149086070474800002070B5044616
:101970000D46002C02D172B600BFFEE70548016893
:1019800018312046FFF7CEFE01212846FFF7EEF87A
:1019900070BD00002400002070B505460E461446B8
:1019A000002D02D172B600BFFEE70748016818316A
:1019B0002846FFF7D2FE002C01D00026F643214630
:1019C0003046FFF7D3F870BD240000201CB5164840
:1019D00000210B463C220091019014A1154800F013
:1019E000F7FA0446012C02D100F0D6FC0446012C83
:1019F0000DD172B60020C0430F49086001200F4985
:101A0000086000200E49086000F064F80AE0601CDD
:101A1000002801D0012000E00020002802D172B689
:101A200000BFFEE71CBD00005800002049444C45A3
:101A300000000000B10E000854000020400000200B
:101A40003800002002480068401C014908607047C7
:101A50005C0000201A480068002803D001201949C2
:101A600008602CE00020174908601748016805E06D
:101A7000002902D172B600BFFEE7491E1420484378
:101A8000124A1058002801D1012000E0002000284F
:101A9000EED114224A430D4BD0184268526842607E
:101AA000024608324368934202D14268526842605B
:101AB0004268D268064B1A600348016000BF704755
:101AC0005C000020480000203C000020DC000020DA
:101AD0002400002010B50B48006AFF2109040843C8
:101AE000084908620846006AFF21090608430549BB
:101AF0000862FFF7A9FE002003490860FEF7EAFA32
:101B0000002010BD00ED00E094000020F7B582B089
:101B100005460E46002D01D0012000E000200028DF
:101B200002D172B600BFFEE72F467743002E05D0E4
:101B300031463846FEF736FBA84201D1012000E0CD
:101B40000020002802D172B600BFFEE738465030B0
:101B5000FFF7BAFC0446002C0BD00194019C2046F0
:101B600050300190009431462846049B019AFFF7BB
:101B7000ABF9204605B0F0BD70B505460E462C46C3
:101B8000002C02D172B600BFFEE7FFF7F3FD216C17
:101B9000E06B484321684018A0600020A0632068E3
:101BA0006060E06B401E216C484321684118E16091
:101BB0000021C9434420015545200155002E10D174
:101BC0002069002801D1012000E00020002810D168
:101BD0002046103000F024FB00280AD0FFF74AFE10
:101BE00007E020461030FFF78DFD20462430FFF738
:101BF00089FDFFF7CDFD012070BDFFB583B006461E
:101C00001D46002002903446002C02D172B600BF5F
:101C1000FEE70498002802D1206C002801D10120A1
:101C200000E00020002802D172B600BFFEE7022DBE
:101C300002D1E06B012801D1012000E00020002842
:101C400002D172B600BFFEE700F0F0F9002802D121
:101C50000598002801D1012000E00020002802D1D1
:101C600072B600BFFEE700BFFFF784FDA06BE16B1B
:101C7000884201D3022D1FD12A4620460499FFF73E
:101C800077F80746606A002801D1012000E00020B3
:101C9000002808D12046243000F0C2FA002806D0DF
:101CA000FFF7E8FD03E0002F01D0FFF7E3FDFFF7AA
:101CB0006FFD012007B0F0BD0598002803D1FFF7A4
:101CC00067FD0020F6E70298002804D16846FFF778
:101CD0003BFE01200290FFF75BFDFFF7B3FEFFF72D
:101CE00049FD44210857401C002802D1002144200E
:101CF000015545210857401C002802D100214520EC
:101D00000155FFF745FD05A9684600F025F90028B3
:101D100019D12046FFF7EAF900280ED020461030EE
:101D20000599FFF723FE2046FFF787FB00F0BCFA7A
:101D3000002899D1FFF79EFD96E72046FFF77DFB2F
:101D400000F0B2FA90E72046FFF777FB00F0ACFA1C
:101D50000020AFE7FFB583B01D46039C002C02D1E5
:101D600072B600BFFEE70498002802D1206C00285C
:101D700001D1012000E00020002802D172B600BF8E
:101D8000FEE7022D02D1E06B012801D1012000E025
:101D90000020002802D172B600BFFEE7FEF7AEF9C0
:101DA0000290A06BE16B884201D3022D30D1452017
:101DB0000757A06B01902A4620460499FEF7D8FFEA
:101DC000781C002814D1606A002801D1012000E0AD
:101DD000002000280BD12046243000F021FA0028F2
:101DE00005D00598002802D00121059801600DE07A
:101DF0007F2F01D0012000E00020002802D172B620
:101E000000BFFEE7781C41B245200155012600E0E5
:101E100000260298FEF776F9304607B0F0BDF7B518
:101E200084B005460E46002003902C46002C02D1BB
:101E300072B600BFFEE7002E02D1206C002801D14F
:101E4000012000E00020002802D172B600BFFEE7AA
:101E500000F0ECF8002802D10698002801D10120FA
:101E600000E00020002802D172B600BFFEE700BFEC
:101E7000FFF780FCA76B002F1AD031462046FEF7F3
:101E800061FF781EA0632069002801D1012000E0D5
:101E90000020002807D12046103000F0C1F90028AA
:101EA00001D0FFF7E7FCFFF773FC012007B0F0BD9E
:101EB0000698002803D1FFF76BFC0020F6E7039893
:101EC000002804D101A8FFF73FFD01200390FFF790
:101ED0005FFCFFF7B7FDFFF74DFC44210857401C9E
:101EE000002802D100214420015545210857401CFB
:101EF000002802D1002145200155FFF749FC06A921
:101F000001A800F029F8002819D12046FFF7E0F8D1
:101F100000280ED0204624300699FFF727FD2046E2
:101F2000FFF78BFA00F0C0F90028A1D1FFF7A2FC5F
:101F30009EE72046FFF781FA00F0B6F998E72046C1
:101F4000FFF77BFA00F0B0F92046FFF7C1F8002850
:101F50008ED00020AAE7000070B505460C46002D83
:101F600002D172B600BFFEE7002C02D172B600BFEC
:101F7000FEE7FFF7FFFB144802686868131A206841
:101F8000401C002801D1002619E010492868096882
:101F9000884206D06868904203D80126002020605D
:101FA0000DE02068984207D92068C01A20602846B2
:101FB000FFF7CAFC002602E0002020600126FFF7A0
:101FC000E7FB304670BD0000380000204C000020C8
:101FD000FFB585B01746B800FFF776FA0646002E23
:101FE0000BD05420FFF770FA0446002C01D0266372
:101FF00004E03046FFF7E0FB00E00024002C10D0A6
:1020000000220F990E986B4613C303923A46089B21
:1020100006990598FEF76EFF2046FEF7E5FD0125BF
:1020200001E00025ED43284609B0F0BD06490968E6
:10203000002901D1012006E004490968002901D1E5
:10204000022000E000207047400000205C000020DB
:10205000014908687047000038000020F8B50020EA
:10206000009042480068002878D141480068451C2B
:102070003F480560002D1CD13E48006800680028DC
:1020800001D1012000E00020002802D172B600BF7B
:10209000FEE738480768384800683649086036481F
:1020A000076036480068401C34490860FFF72CF987
:1020B00000BF3348006885423DD300BF2D4800680B
:1020C0000068002801D1012000E00020002804D091
:1020D0000020C0432A4908602CE026480068C068F8
:1020E000C4686668B54202D22548066022E0201D19
:1020F000FFF790FAA06A002803D020461830FFF7B7
:1021000089FA2049E06A0968884202D91D49E06AD3
:1021100008601422E16A51431B4A8818211DFFF709
:102120001CFB1A49E06A0968C96A8842C6D30120C3
:102130000090C3E700BF15480068C06A14214843F7
:1021400011490858012801D9012000901048006861
:10215000002801D00120009005E0FFE70D4800684D
:10216000401C0C4908600098F8BD00005C0000208D
:1021700038000020280000202C0000204C00002007
:10218000540000203C000020DC000020240000203F
:10219000480000204400002070B505462C4600266B
:1021A000002D35D01B480068844201D1012000E099
:1021B0000020002802D172B600BFFEE7A06C002804
:1021C00002D172B600BFFEE7A06C401EA064616C35
:1021D000E06A88421CD0A06C002819D1201DFFF7AE
:1021E00019FA606CE0620521E06A081AA0610A49E8
:1021F000E06A0968884202D90749E06A0860142247
:10220000E16A5143054A8818211DFFF7A6FA012605
:10221000304670BD240000203C000020DC0000207F
:1022200070B50646F068C468002C02D172B600BFD3
:10223000FEE720461830FFF7EDF915480068002842
:1022400013D1201DFFF7E6F91249E06A09688842B8
:1022500002D91049E06A08601422E16A51430E4A2B
:102260008818211DFFF779FA04E0214618310B4840
:10227000FFF773FA0A49E06A0968C96A884204D913
:10228000012501200749086000E00025284670BDAF
:102290005C0000203C000020DC00002068010020E1
:1022A000240000204800002070B500240026324899
:1022B0000068002802D172B600BFFEE7FFF75AFAA5
:1022C0002D480068401E2C49086008460068002818
:1022D0004DD12A480068002849D022E02848C0682B
:1022E000C46820461830FFF795F9201DFFF792F9D2
:1022F0002449E06A0968884202D92249E06A0860F4
:102300001422E16A5143204A8818211DFFF725FA5B
:102310001E49E06A0968C96A884202D301201C4943
:10232000086017480068002801D1012000E0002063
:102330000028D3D0002C01D0FEF7E6FF1548056831
:10234000002D0DD000BFFFF789FE002802D001202C
:102350000F4908606D1E002DF5D100200D49086061
:102360000B480068002802D00126FFF783FAFFF728
:102370000FFA304670BD00005C00002034000020E1
:10238000680100203C000020DC0000202400002028
:1023900048000020440000201CB50024FEF77AFC11
:1023A0000A48006800280AD0094802210023502268
:1023B0000091019007A10948FFF70AFE0446002C8E
:1023C00002D172B600BFFEE720461CBD68000020A7
:1023D0006C000020546D72205376630021140008B5
:1023E000F0B585B004460D4616461F460020039002
:1023F000002C02D172B600BFFEE715480068002825
:1024000022D0009501960294062D15DAFFF70EFEF4
:10241000022808D1002369460D480A9A0068FFF790
:10242000ECFB039010E000231A4669460848006858
:10243000FFF7E3FB039007E000233A4669460448B0
:102440000068FFF787FC0390039805B0F0BD00001B
:102450006800002074240008000000209C00000098
:10246000C80A0008102500089C000020941E0000E7
:10247000D80A0008006CDC02000000000000000028
:10248000010203040607080900000000010203041A
:102490000102030406070809000000000000000014
:1024A000000000000000000000000000000000002C
:1024B000000000000000000000000000000000001C
:1024C000000000000000000000000000000000000C
:1024D00000000000000000000000000000000000FC
:1024E00000000000000000000000000000000000EC
:1024F00000000000000000000000000000000000DC
:102500000000000000000000AAAAAAAA0000000023
:04000005080000C12E
:00000001FF
