:020000040800F2
:1000000030040020D5000008FB000008FD000008B7
:1000100000000000000000000000000000000000E0
:10002000000000000000000000000000FF000008C9
:10003000000000000000000001010008ED0A0008B7
:100040000501000805010008050100080501000878
:100050000501000805010008050100080501000868
:100060000000000005010008050100080501000866
:100070000501000805010008050100080501000848
:100080000501000800000000000000000501000854
:100090000000000005010008050100080501000836
:1000A0000000000005010008050100080501000826
:1000B0000501000800000000050100080501000816
:1000C0000348854600F08CF800480047911200086C
:1000D000300400200C4880F308880C480168090EA1
:1000E0000B4A914205D10B480B4901600B480C4962
:1000F00001600C4880470C480047FEE7FEE7FEE73A
:10010000FEE7FEE7FEE700003004002004000000E8
:100110001F00000018100240010000000000014014
:1001200000000000590B0008C100000830B50B4664
:10013000014600202022012409E00D46D5409D42C1
:1001400005D31D469540491B254695404019154647
:10015000521E002DF1DC30BD70B50024254600286C
:1001600001DA01244042002901DA01254942FFF762
:10017000DDFFAC4200D04042002C00D0494270BDAF
:10018000F0B51FB40646002082B005464024019118
:1001900000901BE0019922460F46304600F042F8DD
:1001A000049A059B801A994110D31046194622469D
:1001B00000F028F8361A8F410197224601200021CD
:1001C000009F00F01FF838184D4100902046641E33
:1001D0000028DFDC019B00982946324607B0F0BDBD
:1001E000064C0125064E05E0E36807CC2B430C3C8A
:1001F00098471034B442F7D3FFF766FFEC130008BA
:100200000C14000810B5202A04DB0146203A914066
:10021000002010BD914020239C1A0346E34019435F
:10022000904010BD10B5202A04DB0846203AD0408B
:10023000002110BD0B46D340D0402024A21A91408B
:100240000843194610BDFFB583B00C460294002048
:100250000190002726E000261CE0721C0399514300
:100260000846791CFFF762FF0546A54201D9281B05
:1002700000E0601B05460298A84204D90295059843
:100280000670069807700298002802D1012001909C
:1002900002E0761C402EE0D300BF0198002800D079
:1002A00002E07F1C042FD6D300BF029807B0F0BD38
:1002B00008B501210320400400F0E2F8684600F090
:1002C00095F80121C9036846018001218170102140
:1002D000C17069460920C00600F01CF80121C9035D
:1002E0000920C00600F080F8684600F07FF8382149
:1002F00068460180012181701021C170694604485F
:1003000000F008F83821024800F06EF808BD00003F
:1003100000040048F8B50246CD782F073F0FCD788E
:1003200010263540002D01D08D782F431446002033
:1003300011E085062B0E0D88012686403540002DE4
:1003400007D025680F269E40B5433E469E40354364
:100350002560451CE8B20828EBDB141D0D882D1222
:100360000095002011E085062B0E01258540009E9A
:100370003540002D07D025680F269E40B5433E46E8
:100380009E4035432560451CE8B20828EBDBCD785C
:10039000282D04D155690E883543556106E0CD7886
:1003A000482D03D115690E8835431561F8BD70B528
:1003B0004D07EB0E082902DA0546203501E0054617
:1003C00024352C460F269E402568B54316469E4090
:1003D0003543256070BD0246D0680840002801D032
:1003E000012070470020FCE7416170470021C943AC
:1003F0000180022181700421C1707047002A01D060
:10040000016100E04161704710B5002819DA1A4A0D
:1004100003071B0F083B9B089B00D2588307DC0E89
:10042000FF23A3409A438B071B0E8407E40EA340CF
:100430001A43114B0407240F083CA408A4001A51C6
:1004400018E00E4A03231B02D21883089B00D258DF
:100450008307DC0EFF23A3409A438B071B0E840700
:10046000E40EA3401A43054B032424021B198408FD
:10047000A4001A5110BD00001CED00E000E100E0F6
:10048000002905D0054A52690243044B5A6104E031
:10049000024A52698243014B5A6170470010024080
:1004A000002905D0054AD2690243044BDA6104E011
:1004B000024AD2698243014BDA6170470010024060
:1004C000002905D0054A92690243044B9A6104E071
:1004D000024A92698243014B9A61704700100240C0
:1004E00010B500F031F804494968F02211400909BB
:1004F000024A515CC84010BD0010024018000020A4
:1005000010B5FFF7EDFF05494968072212021140B7
:10051000090A034A515CC84010BD000000100240A7
:100520001800002010B5FFF7DBFF054949680722D6
:10053000D2021140C90A034A515CC84010BD0000F4
:10054000001002401800002070B5194840680C21C6
:100550000840042802D0082827D101E0154870BDC2
:1005600013484068012109040840002809D01048B8
:10057000406849000840002801D00F4802E00D48BB
:1005800000E00E4806460A480068800E441C0848F1
:100590000068072109050840000D451C31466143EC
:1005A00008462946FFF7C2FDD9E70248D7E7000011
:1005B0000010024000127A0000093D00001BB70045
:1005C000002906D0012909D002290CD0032914D111
:1005D0000EE0826910231A4382610FE082690823CA
:1005E0001A4382610AE0826910239A43826105E01E
:1005F000826908239A43826100E000BF00BF704710
:10060000002904D0826901231A43826103E08269D0
:1006100052085200826170470246906808400028E4
:1006200001D0012070470020FCE70A79202A11D16F
:1006300082690123DB021A43826182695B109A435B
:100640000B891A438261826904239A430B781A4307
:1006500082610CE0826901239B029A430B891A4351
:100660008261826904239A430B781A438261C269CA
:1006700004239A430B7B1A43C261C26902239A4343
:100680004B791A43C261C269520852008B791A43EE
:10069000C261C26908231A43C261026A120C1204C1
:1006A0004B891A430262C26A520952010B791A43FA
:1006B000C2627047014672B64868CB6ADAB2002A55
:1006C00000D12022082A02DD4B681B021843102AA1
:1006D00002DD4B681B041843182A02DD4B681B0619
:1006E000184362B6704772B60160C36A9AB2002AB4
:1006F00000D12022082A01DD0B0A0360102A01DD47
:100700000B0C0360182A01DD0B0E036062B6704704
:1007100000210170418008210171002141710121F6
:100720008171002101810221418100210173704703
:1007300010B586B00446844884427DD101218014DE
:10074000FFF7BEFE01A8FFF7E3FF00216846017135
:10075000C1800821017200214172012181720021B2
:100760008181A115C1810021017401A92046FFF7F3
:100770005CFF00212046FFF723FF01212046FFF701
:100780001FFF01212046FFF73BFF01214804FFF72F
:1007900077FE01210846FFF793FE0022042109207D
:1007A000C006FFF704FE002205210920C006FFF75E
:1007B000FEFD002206210920C006FFF7F8FD0022F9
:1007C00007210920C006FFF7F2FD05A8FFF70EFE7E
:1007D000102168468182012181754821C17505A9D2
:1007E0000920C006FFF796FD05A8FFF7FFFD2021B1
:1007F00068468182012181750421C17505A90920FE
:10080000C006FFF787FD05A8FFF7F0FD4021684609
:100810008182012181751821C17505A90920C006B1
:10082000FFF778FD05A8FFF7E1FD8021684681828A
:1008300001218175482100E006E0C17505A9092064
:10084000C006FFF767FD7DE0404884427AD1012170
:100850000014FFF725FE01A8FFF75AFF00216846A4
:100860000171C18008210172002141720121817250
:1008700000218181A115C1810021017401A92046B7
:10088000FFF7D3FE00212046FFF79AFE0121204604
:10089000FFF796FE01212046FFF7B2FE01218804F2
:1008A000FFF7EEFD01210846FFF70AFE00220C21AA
:1008B0002748FFF77CFD00220D212548FFF777FD33
:1008C00000220E212248FFF772FD00220F2120484E
:1008D000FFF76DFD05A8FFF789FDA1146846818229
:1008E000012181754821C17505A91948FFF712FD3D
:1008F00005A8FFF77BFD611468468182012181759F
:100900000421C17505A91248FFF704FD05A8FFF7EA
:100910006DFD211468468182012181751821C17500
:1009200005A90B48FFF7F6FC05A8FFF75FFDE113EB
:1009300068468182012181754821C17505A9044855
:10094000FFF7E8FC06B010BD003001400038004061
:100950000004004810B500F001F810BD7FB500207C
:100960000390029000255448006801210843524931
:10097000086000BF504800680221084002900398B8
:10098000401C03900298002804D105210902039815
:100990008842EFD14848006802210840002809D069
:1009A000012002907D24240100BF2046641E0028FF
:1009B000FBD101E000200290029801287BD13F4842
:1009C0003F4908603F480068102108433D490860DE
:1009D00008460068C008C000086039490968481E18
:1009E0003949FFF7A3FBC5B23648006828433549AB
:1009F00008603148406830494860084640684860AF
:100A00002F4800683149884207D92B4840680121A6
:100A1000890208432849486006E0274840680121C8
:100A20008902084324494860234840680321090497
:100A300088432149486008460068254908401E4906
:100A400008606B4601AA1E4801682248FFF7FBFBBD
:100A5000194800681E490840174908606946087926
:100A600080060978090508431349096808431249B3
:100A70000860084600680121090608430E4908601D
:100A800000BF0D4800680121490608400028F8D041
:100A90000948406880088000074948600846406867
:100AA000022108430449486000BF034840680C2104
:100AB00008400828F9D17FBD00100240006CDC021C
:100AC000000000200020024000366E010051250287
:100AD000FFFF8F00001BB7000349086000BF0249F9
:100AE00009680029FBD17047140000200448006801
:100AF000002804D002480068401E01490860704781
:100B00001400002070B50546FFF71EFD0646294675
:100B1000FFF70CFB0446601E0D49884201D90120F5
:100B20000CE0601E0B4948610321081FFFF76CFCB5
:100B3000002008498861072008610020002801D0B2
:100B400000BFFEE70021481EFFF75EFC70BD0000FD
:100B5000FFFFFF0000E000E010B51648006801212B
:100B60000843144908600846406813490840114981
:100B7000486008460068114908400E490860084668
:100B800000680121890488430A49086008464068D2
:100B9000C32109048843074948600846006808499A
:100BA0000840044908609F2000048860FFF7D2FED7
:100BB00010BD0000001002400CC0FFF8FFFFF6FE61
:100BC000FFFF8F008269520852000A43826170471A
:100BD000024690680840002801D00120704700209C
:100BE000FCE7000070B504460D460026E0693021A0
:100BF000884329790843E061E06904218843A979A1
:100C00000843E061E06980088000297A0843E061D8
:100C1000A0691821884369890843A061A06904215B
:100C20008843297B0843A0610B48844203D1FFF726
:100C300079FC064602E0FFF763FC06463046296869
:100C4000FFF774FA0009206230462968FFF76EFA50
:100C50000007000F606270BD00380140CAB2026038
:100C600070474B21C9010160302101710021817160
:100C7000017218214181002101737047F0B585B0E0
:100C800004460D4616461F464948844245D1012177
:100C90008803FFF715FC6846FFF7E3FF00956846F9
:100CA0008680C7800A9901810021818118214181B4
:100CB00069462046FFF796FF01214804FFF7E0FB55
:100CC00001210846FFF7FCFB01220921C806FFF7B6
:100CD0006EFB01220A210920C006FFF768FB04A869
:100CE000FFF784FB61156846018201218174182198
:100CF000C17404A90920C006FFF70CFB2115684642
:100D000001820421C17404A90920C006FFF702FB77
:100D100001212046FFF756FF48E02648844245D18E
:100D200001214804FFF7BCFB6846FFF79AFF0095D6
:100D300068468680C7800A99018100218181182137
:100D4000418169462046FFF74DFF01214804FFF726
:100D500097FB01210846FFF7B3FB0122022109207E
:100D6000C006FFF724FB012203210920C006FFF77C
:100D70001EFB04A8FFF73AFB04216846018201210B
:100D800081741821C17404A90920C006FFF7C2FAB2
:100D90000821684601820421C17404A90920C00603
:100DA000FFF7B8FA01212046FFF70CFF05B0F0BDB0
:100DB00000380140004400400FB410B503A9044BB3
:100DC000044A029800F018F810BC08BC04B0184798
:100DD0006D1200082800002002E008C8121F08C198
:100DE000002AFAD170477047002001E001C1121FAC
:100DF000002AFBD170470000FFB591B00F460546B1
:100E0000002606E025280AD0149A139990476D1CF5
:100E1000761C28780028F5D1304615B0F0BD0024A6
:100E200000940121F34A029400E004436D1C2B78E6
:100E30000846203B98401042F7D128782A280ED047
:100E4000022128780246303A092A15D8009A0A2346
:100E50005A43303A80180C436D1C0090F1E701CFE3
:100E60000090002805DA0120400304430098404226
:100E70000090022004436D1C28782E2815D10420F0
:100E8000044368786D1C2A280AD101CF6D1C02909A
:100E90000BE002990A225143303940186D1C029030
:100EA0002878014630390929F3D928786C2810D0E0
:100EB00006DC4C281AD068280ED06A2817D104E026
:100EC000742813D07A2812D110E001204005044381
:100ED0000CE00121090501E0032109050C436978B3
:100EE000814203D10120000524186D1C6D1C287857
:100EF00003906E281ED00CDC632831D004DC00285F
:100F00008AD0582811D1B2E064287BD069280CD14E
:100F100078E073282DD004DC6F2870D0702804D1BD
:100F2000A7E075286CD078286BD0149A1399904755
:100F3000761C62E06002400F022807D003280AD026
:100F4000042838680AD006603F1D56E03868F1175B
:100F500006604160F8E738680680F5E70670F3E759
:100F60003878694608740020487404A8039001206A
:100F700003E0386803900020C0433F1D61070FD590
:100F8000002101E00199491C029A0191914213DA72
:100F90008142F7DB019A0399895C0029F2D10BE0C9
:100FA000002101E00199491C01918142FADB019A7B
:100FB0000399895C0029F5D101990098139A401A88
:100FC00000902146149B00F03BF9019980194618C6
:100FD00007E0039803990078491C0391149A139928
:100FE00090470198401E0190401CF2D12146149B6D
:100FF000139A009800F014F986196D1C09E741E076
:1010000033E034E00A200021049005916002410F92
:10101000022905D001CFC2179446032905D007E065
:10102000FF1DFF08FF0003CF06E000B2C217944681
:10103000042902D140B2C1178C4600226146944572
:1010400006DA0A460021404291418C462D2102E0F9
:10105000210504D52B216A461176012103E0E10721
:1010600001D02021F7E7019154E00A200BE0102085
:1010700009E0102004900021042004430820059179
:10108000029003E008200021059104906002410FC6
:10109000022905D001CF00229446032906D006E09C
:1010A000FF1DFF08FF0003CF8C4603E080B2042938
:1010B00000D1C0B20021019121072BD503997029DD
:1010C00006D0049A1021059B4A401A4305D00EE031
:1010D00040216A461176012108E06146014306D0AD
:1010E00030216A4611760399517602210191049AC2
:1010F0000821059B4A401A430CD16146014301D1A6
:10110000610707D530216A461176012101910299C4
:10111000491E02910399582904D037A103910FA9C0
:101120000F910DE039A1F9E76146059B049AFFF79D
:1011300027F8039B8C469B5C0F9A521E0F921370EC
:1011400061460143F0D10F9807A9081A2030039097
:10115000600704D5012000048443029801E00120C7
:1011600002900399884201DD401A00E000204118F6
:101170000290019809180098401A0090E00306D4E4
:101180002146149B139A009800F05AF88619002003
:10119000049008E006A9085C149A139990470498F3
:1011A000401C761C049001998842F3DBE0030CD5C7
:1011B0002146149B139A009800F042F8861904E027
:1011C000149A302013999047761C0299481E029079
:1011D0000029F5DC08E00F980F990078491C0F9161
:1011E000149A13999047761C0399481E039000297E
:1011F000F1DCFBE609280100303132333435363773
:101200003839616263646566000000003031323352
:1012100034353637383941424344454600000000F2
:10122000F8B5044600251E461746880404D405E098
:1012300039462020B0476D1C641EF9D52846F8BDFC
:10124000FFB50446002581B01E46C80301D53027EE
:1012500000E02027880404D505E038460399B0470C
:101260006D1C641EF9D5284605B0F0BD70B5044666
:101270000D46E1B20548FFF7F1FC00BF012103482C
:10128000FFF7A6FC0028F9D0204670BD00380140C9
:1012900008B50024002500267D20C000FFF732FCA1
:1012A000002003463022E121490200903E48FFF72A
:1012B000E5FC3E48FFF73CFAFEF7FAFF00BF4DE0C1
:1012C0000121C9030920C006FFF785F8002807D0CF
:1012D00000220121C9030920C006FFF78FF805E0AD
:1012E0000122D1030920C006FFF788F80821304801
:1012F000FFF771F8002805D0002208212C48FFF7DD
:101300007DF804E0012208212948FFF777F8102131
:101310002748FFF760F8002805D000221021244854
:10132000FFF76CF804E0012210212148FFF766F86E
:1013300020211F48FFF74FF8002805D00022202168
:101340001B48FFF75BF804E0012220211848FFF753
:1013500055F86420FFF7C0FB601CC4B20A2CAFDB59
:1013600014A217A119A0FFF727FD1CE000BF02215E
:101370000E48FFF751F90028F9D00C48FFF79AF909
:10138000C6B231460948FFF7AEF9314615A0FFF75E
:1013900013FD0A21681CFEF7DFFECDB2002D02D13D
:1013A0000FA0FFF709FDE1E70038014000380040D9
:1013B0000004004832323A32313A3434000000003E
:1013C0004F63742031342032303230000D0A4D4DDD
:1013D0003332463033325238543620257320257349
:1013E0000D0A000030782530327820000C140008F7
:1013F000000000202C000000D80D00083814000860
:101400002C00002004040000E80D0008006CDC0241
:1014100000000000000000000102030406070809A4
:1014200000000000000000000102030401020304A8
:08143000060708090000000096
:04000005080000C12E
:00000001FF
