:020000040800F2
:1000000030040020D5000008FB000008FD000008B7
:1000100000000000000000000000000000000000E0
:10002000000000000000000000000000FF000008C9
:10003000000000000000000001010008890E000817
:100040000501000805010008050100080501000878
:100050000501000805010008050100080501000868
:100060000000000005010008050100080501000866
:100070000501000805010008050100080501000848
:100080000501000800000000000000000501000854
:100090000000000005010008050100080501000836
:1000A0000000000005010008050100080501000826
:1000B0000501000800000000050100080501000816
:1000C0000348854600F0FAFA00480047911A0008F4
:1000D000300400200C4880F308880C480168090EA1
:1000E0000B4A914205D10B480B4901600B480C4962
:1000F00001600C4880470C480047FEE7FEE7FEE73A
:10010000FEE7FEE7FEE700003004002004000000E8
:100110001F00000018100240010000000000014014
:1001200000000000F50E0008C100000830B50B46C5
:10013000014600202022012409E00D46D5409D42C1
:1001400005D31D469540491B254695404019154647
:10015000521E002DF1DC30BDF0B51FB488B00B99F4
:100160000998002448400999C00F4900490809919D
:10017000C0070B990090490049080B91099908980C
:10018000A64608431CD00B990A98084318D0099832
:1001900001244000420D4800410D09982405000348
:1001A000000B204309900B980003000B20430B9099
:1001B00050181C494018002201901446104605E0D2
:1001C000002001460DB0F0BD032801DA034600E02F
:1001D00003239C46C11A0AAE0AE05F0008ADED5B3E
:1001E0004F00F75B7D430027AA187C41491C5B1E2A
:1001F0006145F2DD410004AB5A522104120C0A435E
:10020000240C401C0828DFDB0198029000997046FE
:1002100001910090059B049A0799069800F015F942
:10022000D0E700000DFCFFFFF0B50C465C4085B048
:10023000E40FE40703944C00002664085900944638
:10024000490802460296224321D062460A431ED044
:100250006200570D4A000E032303550D0124024688
:100260002C492405781B1B0B360B401823432643CF
:10027000614600901C46501AB44103D30098401CBC
:10028000009002E0921800985B41002803DA0020F9
:10029000014605B0F0BD002001210905074686464C
:1002A00011E064461D46141BB54106D36546521B3A
:1002B000B341744607430C43A646CD07400849089E
:1002C000284392185B4105460D43EAD11046184376
:1002D00013D06046194650407140084306D060462E
:1002E000101AB34106D20122002306E000220123A6
:1002F000DB0702E00122D243531000987446010547
:10030000381C6141029C039D0019694100F090F87E
:10031000BFE70000FD03000010B500229623114640
:1003200000F04DF810BDC20FD207400040080BD0BE
:10033000C10D0723DB01C91840020905400A11431A
:10034000C208400711437047002001467047F0B5CE
:100350001FB40646002082B005464024019100905B
:100360001BE0019922460F46304600F0C9F9049A75
:10037000059B801A994110D310461946224600F079
:10038000AFF9361A8F410197224601200021009FC4
:1003900000F0A6F938184D4100902046641E002850
:1003A000DFDC019B00982946324607B0F0BD0029EA
:1003B00004DA401C490001D140084000704770B485
:1003C0000024050C05D11024000402D1002921D0FD
:1003D0001124050E01D100020834050F01D10001DE
:1003E000241D850F01D18000A41C002801DB4000E2
:1003F000641C002908D020252E1B0D46F540A14085
:1004000000D001212943084301061B1B000ADB1D04
:1004100002D5002070BC7047DB0518188018002931
:10042000F8DA401C4900F5D170BC40084000704724
:1004300010B5002B08DA0024401C614192185B4182
:100440001A4301D14008400010BDF0B51FB482B07E
:1004500005460C0003D0084600F08CFE02E000F0D8
:1004600089FE2030024600902146284600F038F9E7
:10047000049B059A04460F4618431143084314D0C1
:10048000184610431BD0009840210A1A18460599B7
:1004900000F036F905460E46009A0599049800F0DA
:1004A0001FF9084305D0012004E02046394607B073
:1004B000F0BD0020C11705430E432C43374300997C
:1004C0000E986305401A7905E40A00220C43FD0AE0
:1004D0000A3002D500200146E9E7010510196941FB
:1004E0000C9C0D9D00196941FFF7A2FFDFE700009A
:1004F000F0B507460846584087B0C00F0490480042
:100500000E46590040084908BC1A884105D23846B1
:1005100031461E4617460B46024658004008104317
:100520004CD0300D039040055900400D490D059009
:10053000401A0290402872DA18030121000B0905C5
:100540000843019004980092002805D00199524276
:100550000020884100920190029840210A1A0199D6
:10056000009800F0BDF805460C466B4607CB00F03E
:10057000D8F8C0197141039A0E0D0023D7175640C1
:100580001A467A40164344D0049A002A2DD0029A83
:10059000012A039A15DC1205C01A9141012636057D
:1005A000001C7141D20F059ED20700930192029662
:1005B0002A462346FFF749FF07B0F0BD38463146CB
:1005C000FAE71605224A0F46B218C01AB7410121B0
:1005D0000905001C4F4100187F4111461818794148
:1005E000E20F10436D19644113E0E2076D081543F3
:1005F0006408C2071443039A01261205C01A9141E8
:100600003605001C7141CE07400830434908C01828
:1006100051412A462346FFF70BFFCDE7FFE7049839
:1006200001224000C117121A00238B410498314661
:10063000C417381AA141EEE730B40124E40763403F
:1006400030BC55E730B40124E407614030BC4FE7CB
:100650000000E0FF4A0009030123090B1B051943B1
:100660000A4B10B5520D9A4202DA0020014610BD25
:10067000064B34339A4203DC9A1A00F041F810BD5D
:10068000034BD21800F02CF810BD0000FF0300004F
:10069000CDFBFFFF10B5002904DB0124E407404235
:1006A0008C412146002B04DB1C460123DB07524210
:1006B000A341994200D1904210BD0000064C012593
:1006C000064E05E0E36807CC2B430C3C98471034FA
:1006D000B442F7D3FFF7F8FC981B0008B81B0008DA
:1006E00010B5202A04DB0146203A9140002010BDBD
:1006F000914020239C1A0346E3401943904010BDCB
:1007000010B5202A04DB0846203AD040002110BD55
:100710000B46D340D0402024A21A914008431946EA
:1007200010BD10B5202A06DBCB170846203A104131
:10073000C1170B4306E00B461341D0402024A21AF8
:1007400091400843194610BD012904D14269012393
:100750001A43426103E0426902231A43426170472F
:10076000002904D0426801231A43426003E0426832
:10077000520852004260704700B587B0012148021C
:1007800000F036FA01A800F0DAF80020019070209D
:100790000290002003900690059001A9114800F0F6
:1007A00031F807239B02002201210E4800F08EF849
:1007B00001210C48FFF7D4FF0121480400F0F8F9AB
:1007C000684600F0ABF90221684601800121817082
:1007D0000021C17069460920C00600F033F907B056
:1007E00000BD000000240140014608687047024631
:1007F000012902D15069084070475069022318400E
:100800004008F9E742680B4B1A4042600B684A689F
:100810001A4343681A4342608268074B1A40826059
:100820000B694A691A438B681A4383681A438260CA
:10083000704700000FBCFFFF8FF1F9FFF0B585B0E6
:10084000002004900121164800F06BF800BF012140
:100850001348FFF7CCFF0028F9D001211048FFF71B
:1008600073FF0F48FFF7C0FF80B204900498FFF7B2
:1008700053FD0190FFF757FD04460022094BFFF797
:10088000D3FC094A094B03910290FFF765FC064629
:1008900032460B4606A000F05DFC05B0F0BD00003E
:1008A0000024014000FEAF406666666666660A4048
:1008B0000D0A414443312043483120566F6C746126
:1008C0006765203A2025302E3166000070B5044659
:1008D0000D46164660680F21890288436060102B20
:1008E00000D29B02606818436060E0680121A94063
:1008F0008843E060E0680121A9400843E0600120EE
:1009000080032840002803D0012000F021F807E0F0
:100910000120C0032840002802D0012000F018F870
:1009200070BD002905D08268FF2301331A4382601D
:1009300004E08268FF2301339A43826070470021FC
:100940000160416081600173016141617047000095
:10095000002806D0064949680C221143044A516018
:1009600005E0034949680C229143014A51607047F0
:1009700000240140FFB583B00C4602940020019092
:10098000002726E000261CE0721C0399514308460C
:10099000791CFFF7CBFB0546A54201D9281B00E0D7
:1009A000601B05460298A84204D902950598067076
:1009B000069807700298002802D10120019002E0F9
:1009C000761C402EE0D300BF0198002800D002E042
:1009D0007F1C042FD6D300BF029807B0F0BD0000E3
:1009E00008B501210320400400F0E2F8684600F059
:1009F00095F80121C9036846018001218170102109
:100A0000C17069460920C00600F01CF80121C90325
:100A10000920C00600F080F8684600F07FF8382111
:100A200068460180012181701021C1706946044827
:100A300000F008F83821024800F06EF808BD000008
:100A400000040048F8B50246CD782F073F0FCD7857
:100A500010263540002D01D08D782F4314460020FC
:100A600011E085062B0E0D88012686403540002DAD
:100A700007D025680F269E40B5433E469E4035432D
:100A80002560451CE8B20828EBDB141D0D882D12EB
:100A90000095002011E085062B0E01258540009E63
:100AA0003540002D07D025680F269E40B5433E46B1
:100AB0009E4035432560451CE8B20828EBDBCD7825
:100AC000282D04D155690E883543556106E0CD784F
:100AD000482D03D115690E8835431561F8BD70B5F1
:100AE0004D07EB0E082902DA0546203501E00546E0
:100AF00024352C460F269E402568B54316469E4059
:100B00003543256070BD0246D0680840002801D0FA
:100B1000012070470020FCE7416170470021C94374
:100B20000180022181700421C1707047002A01D028
:100B3000016100E04161704710B5002819DA1A4AD6
:100B400003071B0F083B9B089B00D2588307DC0E52
:100B5000FF23A3409A438B071B0E8407E40EA34098
:100B60001A43114B0407240F083CA408A4001A518F
:100B700018E00E4A03231B02D21883089B00D258A8
:100B80008307DC0EFF23A3409A438B071B0E8407C9
:100B9000E40EA3401A43054B032424021B198408C6
:100BA000A4001A5110BD00001CED00E000E100E0BF
:100BB000002905D0054A52690243044B5A6104E0FA
:100BC000024A52698243014B5A6170470010024049
:100BD000002905D0054AD2690243044BDA6104E0DA
:100BE000024AD2698243014BDA6170470010024029
:100BF000002905D0054A92690243044B9A6104E03A
:100C0000024A92698243014B9A6170470010024088
:100C100010B500F031F804494968F0221140090983
:100C2000024A515CC84010BD00100240180000206C
:100C300010B5FFF7EDFF0549496807221202114080
:100C4000090A034A515CC84010BD00000010024070
:100C50001800002010B5FFF7DBFF0549496807229F
:100C6000D2021140C90A034A515CC84010BD0000BD
:100C7000001002401800002070B5194840680C218F
:100C80000840042802D0082827D101E0154870BD8B
:100C900013484068012109040840002809D0104881
:100CA000406849000840002801D00F4802E00D4884
:100CB00000E00E4806460A480068800E441C0848BA
:100CC0000068072109050840000D451C31466143B5
:100CD00008462946FFF72AFAD9E70248D7E7000075
:100CE0000010024000127A0000093D00001BB7000E
:100CF00010B500F001F810BD7FB500200390029000
:100D0000002554480068012108435249086000BF8B
:100D1000504800680221084002900398401C03904C
:100D20000298002804D10521090203988842EFD1D6
:100D30004848006802210840002809D0012002909C
:100D40007D24240100BF2046641E0028FBD101E061
:100D500000200290029801287BD13F483F4908605B
:100D60003F480068102108433D4908600846006874
:100D7000C008C000086039490968481E3949FFF7B2
:100D8000D5F9C5B23648006828433549086031486E
:100D90004068304948600846406848602F4800680D
:100DA0003149884207D92B4840680121890208430C
:100DB0002849486006E02748406801218902084325
:100DC0002449486023484068032109048843214995
:100DD000486008460068254908401E4908606B467F
:100DE00001AA1E4801682248FFF7C4FD194800689F
:100DF0001E49084017490860694608798006097845
:100E00000905084313490968084312490860084660
:100E100000680121090608430E49086000BF0D481B
:100E200000680121490608400028F8D009484068B8
:100E3000800880000749486008464068022108434E
:100E40000449486000BF034840680C210840082856
:100E5000F9D17FBD00100240006CDC0200000020D0
:100E60000020024000366E0100512502FFFF8F0076
:100E7000001BB7000349086000BF02490968002948
:100E8000FBD170471400002004480068002804D0FB
:100E900002480068401E01490860704714000020A5
:100EA00070B50546FFF7E8FE06462946FFF73EF90E
:100EB0000446601E0D49884201D901200CE0601EE5
:100EC0000B4948610321081FFFF736FE002008493F
:100ED0008861072008610020002801D000BFFEE7DC
:100EE0000021481EFFF728FE70BD0000FFFFFF0035
:100EF00000E000E010B516480068012108431449DD
:100F0000086008464068134908401149486008468F
:100F10000068114908400E49086008460068012130
:100F2000890488430A49086008464068C3210904C7
:100F30008843074948600846006808490840044952
:100F400008609F2000048860FFF7D2FE10BD0000FB
:100F5000001002400CC0FFF8FFFFF6FEFFFF8F00FD
:100F60008269520852000A438261704702469068C3
:100F70000840002801D0012070470020FCE7000055
:100F800070B504460D460026E06930218843297972
:100F90000843E061E06904218843A9790843E061DE
:100FA000E06980088000297A0843E061A06918217F
:100FB000884369890843A061A06904218843297B8B
:100FC0000843A0610B48844203D1FFF743FE064665
:100FD00002E0FFF72DFE064630462968FFF7A6F827
:100FE0000009206230462968FFF7A0F80007000FCB
:100FF000606270BD00380140CAB2026070474B2188
:10100000C901016030210171002181710172182133
:101010004181002101737047F0B585B004460D464B
:1010200016461F464948844245D101218803FFF7EF
:10103000DFFD6846FFF7E3FF009568468680C780BE
:101040000A99018100218181182141816946204648
:10105000FFF796FF01214804FFF7AAFD012108468A
:10106000FFF7C6FD01220921C806FFF738FD01225E
:101070000A210920C006FFF732FD04A8FFF74EFD44
:10108000611568460182012181741821C17404A987
:101090000920C006FFF7D6FC21156846018204210D
:1010A000C17404A90920C006FFF7CCFC0121204629
:1010B000FFF756FF48E02648844245D10121480405
:1010C000FFF786FD6846FFF79AFF00956846868021
:1010D000C7800A99018100218181182141816946D7
:1010E0002046FFF74DFF01214804FFF761FD012174
:1010F0000846FFF77DFD012202210920C006FFF707
:10110000EEFC012203210920C006FFF7E8FC04A839
:10111000FFF704FD04216846018201218174182132
:10112000C17404A90920C006FFF78CFC0821684699
:1011300001820421C17404A90920C006FFF782FCC2
:1011400001212046FFF70CFF05B0F0BD003801403B
:10115000004400400FB410B503A9044B044A0298A0
:1011600000F0E8F810BC08BC04B018476D1A00087D
:10117000280000202021020C01D010211046020A74
:1011800001D010460839020901D01046091F820813
:1011900001D01046891E420801D0881E7047081AE7
:1011A000704702E008C8121F08C1002AFAD1704730
:1011B0007047002001E001C1121F002AFBD17047D7
:1011C000F0B51FB486B00998089A030D00210243B8
:1011D00014D05148514A1818504305141198012849
:1011E00010981AD0281A401C00264D4F4D490096E1
:1011F00001910490002812DA444211E01198012470
:1012000049A3012801D11098C1430698119A84601E
:101210000360C26041600BB0F0BD4042E4E70446A9
:10122000210500203F4A001C51410391029012E029
:10123000E00707D032463B4601990098FEF78CFF45
:101240000191009032463B4610461946FEF784FF56
:1012500006460F466410002CEAD10498039B002830
:10126000029A0999089806DAFEF776FF019B009A20
:10127000FEF772FF05E0FEF7D7FF019B009AFEF72D
:10128000D3FF04460E460022284BFFF703FA03D88B
:101290000020C043014607E00022254B204631468E
:1012A000FFF726F9FFF7D6F9102409E0002C0ADB36
:1012B0000A220023FFF74BF8079B30321A55641EB1
:1012C00002460A43F2D11122641C079B121B1C190F
:1012D000119B012B03D0012308430ED10AE00843E0
:1012E00004D0112010900020119077E71098151A63
:1012F0006D1E0BE01098824202DD00236D1C03E09E
:10130000824201DA00236D1E002BEED0069811995F
:101310008260C16030C07EE701FCFFFF104D00001D
:10132000000014400000F03F300000000000F043D7
:101330000000E03FFFB597B00646002518E22528DB
:1013400077D100242746FD49049400E00443761C2D
:1013500032780120203A90400842F7D130782A288C
:101360000ED00222307801463039092916D8049966
:101370000A235943303940181443761C0490F1E78E
:10138000189802C804911890002904DA012040033B
:1013900004434842049002200443761C30782E28EF
:1013A00014D1042004437078761C2A2809D1189897
:1013B000761C80C8189009E00A214F43303FC719B6
:1013C000761C3078014630390929F5D930786C28F7
:1013D00010D006DC4C281AD068280ED06A2817D105
:1013E00004E0742813D07A2812D110E001204005BF
:1013F00004430CE00121090501E0032109050C4328
:101400007178814203D1012000052418761C761CD6
:101410003078119066280BD013DC58287DD009DC79
:1014200000287BD04528F6D04628F4D047281AD18A
:10143000A5E118E0632835D0642870D0652812D162
:101440009DE170286CD008DC6728F1D069287BD03A
:101450006E280DD06F2806D1BAE073282ED07528DB
:1014600071D0782859D01A9A199990476D1C7EE14D
:101470006002400F022809D003280DD004281898D4
:1014800001680DD00D60001D189070E11898EA17E2
:1014900001680D604A60F6E7189801680D80F2E770
:1014A0000D70F0E718986A4601781172001D1890C7
:1014B0000020507202A80090012005E0189802C890
:1014C000189000200091C04361070DD5002101E074
:1014D0000199491C0191B94212DA8142F8DB009A64
:1014E000515C0029F4D10BE0002101E00199491C75
:1014F00001918142FADB019A0099895C0029F5D1BA
:10150000019904981A9B471A21463846199A00F007
:1015100097FA0199401945180BE04FE02CE113E0D0
:101520004EE0009800990078491C00911A9A199988
:1015300090470198401E0190401CF2D12146384648
:101540001A9B199A10E137E00A20002100900191BE
:101550006002410F022907D0189A01CA1892C217D7
:101560009446032908D00AE01898C01DC108C90094
:1015700005C91891944607E000B2C21794460429A1
:1015800002D140B2C1178C4600226146944506DA6A
:101590000A460021404291418C462D2102E021055E
:1015A00004D52B216A461173012103E0E10701D024
:1015B0002021F7E7029155E00A200AE0102008E018
:1015C000102000900021042004430191082703E02B
:1015D00008200021019100906002410F022907D0EC
:1015E000189A01CA189200229446032908D008E0EC
:1015F0001898C01DC108C90005C91891944603E098
:1016000080B2042900D1C0B200210291210729D55E
:101610001199702906D0009A1021019B4A401A4363
:1016200005D00EE040216A461173012108E06146B1
:10163000014306D030216A4611731199517302217A
:101640000291009A0821019B4A401A430AD161463F
:10165000014301D1610705D530216A46117301218B
:101660007F1E02911199582904D035A10E910DA920
:101670000D910DE037A1F9E76146019B009AFEF755
:1016800066FE0E9B8C469B5C0D9A521E0D9213704B
:1016900061460143F0D10D9805A9081A2030019048
:1016A000600703D501200004844300E0012701986E
:1016B000874201DD381A00E00020019900904118AE
:1016C000029809180498401A0490E00306D42146B1
:1016D0001A9B199A049800F0B3F94519002706E0FF
:1016E00003A81A9AC05D199990476D1C7F1C029837
:1016F0008742F5DBE0030CD521461A9B199A049822
:1017000000F09EF9451904E01A9A30201999904783
:101710006D1C0099481E00900029F5DC08E00D982A
:101720000D990078491C0D911A9A199990476D1CD2
:101730000199481E01900029F1DC63E109280100AC
:101740003031323334353637383961626364656637
:1017500000000000303132333435363738394142F9
:10176000434445460000000000F05AF94519761C34
:101770003078002800D0E2E528461BB0F0BD6007B5
:1017800000D406271898C01DC108C90048680A6817
:101790000831C30FDB071891190001D09CA108E0A4
:1017A000210501D59BA104E0E10701D09AA100E049
:1017B0009AA1430011985B08109165280CD006DCB3
:1017C000452809D046281DD0472841D141E0662848
:1017D00018D067283CD13CE00021112F01DB1120FB
:1017E00000E0781C0191009008A911A8FFF7E8FC1F
:1017F000139905910021119A15927F1C1298019757
:10180000009150E00120C00703900120019008A939
:10181000009711A8FFF7D4FC139A1499059200229F
:10182000119B009212981593059A0192002901D0FC
:10183000104602E0791C40180190381A01D5019831
:1018400004E04042401E0090781C0190C01B0290B2
:1018500043E0012F00DA01270021112F01DD1120C3
:1018600000E038460191009008A911A8FFF7A8FCF4
:1018700013990591119A00211298159200910197E0
:1018800021070CD40599B94201DB019900E00191CF
:10189000012904DD159A491E515C302906D0B84251
:1018A00001DA011D05DA0121029115E00199491EB5
:1018B000EDE7002805DC0099411800910199091A0B
:1018C00003E0019A411C914200DD01910099401A08
:1018D000401C02900120C0070390200706D4029903
:1018E0000198814202DB0020C0430290002069463B
:1018F000C87707AF012103980337C907884224D06E
:10190000022011902B201290039800280CDA4042FC
:1019100003902D20129007E00A210398FEF706FCA1
:1019200030317F1E039039701199481E11900029A3
:10193000F2DC03980028EFD1791E129808703078F5
:10194000202108404530BF1E387006A8C01BC01DAE
:10195000039010980078002800D0012001994118C8
:101960000298C0170918039809180498401A401ED5
:101970000490E00306D421461A9B199A049800F0BB
:101980005FF8451910980078002803D01A9A199921
:1019900090476D1CE00324D521461A9B199A0498A0
:1019A00000F04EF845191CE00098002807DB00996C
:1019B0000598884203DD1598405C199901E0199952
:1019C00030201A9A904700986D1C401C0090029895
:1019D000401E0290002804D11A9A2E20199990478F
:1019E0006D1C0199481E01900029DDDC05E0387866
:1019F0001A9A7F1C199990476D1C0399481E0390F1
:101A00000029F4DC21461A9B199A0498ACE60000E0
:101A10002D0000002B00000020000000000000004E
:101A2000F8B5044600251E461746880404D405E090
:101A300039462020B0476D1C641EF9D52846F8BDF4
:101A4000FFB50446002581B01E46C80301D53027E6
:101A500000E02027880404D505E038460399B04704
:101A60006D1C641EF9D5284605B0F0BD70B504465E
:101A70000D46E1B20548FFF7BFFA00BF0121034858
:101A8000FFF774FA0028F9D0204670BD00380140F5
:101A900008B57D20C000FFF703FA0020034630227E
:101AA000E121490200902E48FFF7B6FAFEF798FFB1
:101AB000FEF762FE2BA22EA130A0FFF74BFB4EE0FB
:101AC0000121C9030920C006FFF71DF8002807D02F
:101AD00000220121C9030920C006FFF727F805E00D
:101AE0000122D1030920C006FFF720F80821294868
:101AF000FFF709F8002805D0002208212548FFF744
:101B000015F804E0012208212248FFF70FF8102100
:101B10002048FEF7F8FF002805D0002210211D48BC
:101B2000FFF704F804E0012210211A48FEF7FEFF37
:101B300020211848FEF7E7FF002805D000222021C9
:101B40001448FEF7F3FF04E0012220211148FEF7BC
:101B5000EDFFFEF773FEFF20F530FFF78BF9AFE7DF
:101B60000038014031333A34333A31360000000056
:101B70004F63742031352032303230000D0A4D4D24
:101B80003332463033325238543620257320257391
:101B90000D0A000000040048B81B000800000020E7
:101BA0002C000000A2110008E41B00082C000020FB
:101BB00004040000B2110008006CDC020000000008
:101BC00000000000010203040607080900000000ED
:101BD00000000000010203040102030406070809D3
:041BE0000000000001
:04000005080000C12E
:00000001FF
